:100000000C9463000C9427090C9454090C948B00F5
:100010000C948B000C948B000C948B000C948B0034
:100020000C948B000C948B000C948B000C948B0024
:100030000C948B000C948B000C948B000C948B0014
:100040000C9481090C948B000C948B000C948B0005
:100050000C948B000C948B000C948B000C948B00F4
:100060000C948B000C948B000000000024002700EF
:100070002A0000000000250028002B0000000000DE
:1000800023002600290004040404040404040202DA
:100090000202020203030303030301020408102007
:1000A0004080010204081020010204081020000012
:1000B0000007000201000003040600000000000029
:1000C00000003B04B60511241FBECFEFD8E0DEBF11
:1000D000CDBF12E0A0E0B1E0E8ECF7E102C005908E
:1000E0000D92A830B107D9F712E0A8E0B2E001C044
:1000F0001D92A136B107E1F710E0C6ECD0E004C0D4
:100100002297FE010E94DE0BC23CD107C9F70E9474
:10011000550B0C94E20B0C940000EF92FF920F939E
:10012000DF93CF93CDB7DEB760970FB6F894DEBFFD
:100130000FBECDBFA82F002309F461C07E01089433
:10014000E11CF11C88E0F70111928A95E9F72983F7
:100150003A834B835C836D837E83AF83988780E291
:10016000801BE82FFF27E7FDF09549815A816B81BD
:100170007C81181684F019861A861B861C868827AF
:1001800099278E1B9F0B04C0440F551F661F771FB6
:100190008A95D2F728C0202F332727FD3095DB0121
:1001A000CA01022E04C0880F991FAA1FBB1F0A9400
:1001B000D2F789879A87AB87BC8704C07695679505
:1001C00057954795EA95D2F78D819E81AF81B88585
:1001D00004C0880F991FAA1FBB1F2A95D2F7482B6E
:1001E000592B6A2B7B2B4D875E876F87788B2985F0
:1001F0003A854B855C856D857E85AF8598898A2F8C
:1002000060960FB6F894DEBF0FBECDBFCF91DF91E1
:100210000F91FF90EF900895A8E1B0E0E2E1F1E0E6
:100220000C94AD0B69837A838B839C832D833E83EF
:100230004F835887B9E0EB2EF12CEC0EFD1ECE015A
:100240000196B7010E946A038E010F5E1F4FCE0117
:100250000596B8010E946A032985223008F47EC001
:100260003989323010F4B8017CC08A859A8989278F
:100270008A87243011F0223031F4231709F06EC040
:1002800060E071E06EC0343039F41D861E861F8632
:10029000188A1C861B8604C0323021F484E08987CA
:1002A000B7015FC02B853C858B899C89281B390B46
:1002B0003C872B87ED84FE840F851889AD88BE8826
:1002C000CF88D88CEA14FB040C051D0540F4EE0C15
:1002D000FF1C001F111F215030403C872B8720E05E
:1002E00030E040E050E080E090E0A0E0B0E460E08A
:1002F00070E0EA14FB040C051D0540F0282B392B97
:100300004A2B5B2BEA18FB080C091D09B695A7952B
:1003100097958795EE0CFF1C001F111F6F5F7F4F95
:100320006F31710531F7DA01C9018F779070A070D4
:10033000B07080349105A105B10561F427FD0AC0B4
:10034000E114F1040105110529F0205C3F4F4F4FE6
:100350005F4F20782D873E874F87588BBE01675FA0
:100360007F4FCB010E9495026896EAE00C94C90B7E
:10037000A8E1B0E0EEEBF1E00C94B10B69837A8375
:100380008B839C832D833E834F83588789E0E82E9F
:10039000F12CEC0EFD1ECE010196B7010E946A03FE
:1003A0008E010F5E1F4FCE010596B8010E946A03B1
:1003B0008985823040F08989823028F0C701B801F0
:1003C0000E94E20301C08FEF6896E6E00C94CD0B2B
:1003D000A8E0B0E0EEEEF1E00C94AE0B9B01AC01B6
:1003E00083E08983DA01C9018827B7FD83959927BE
:1003F000AA27BB27B82E211531054105510519F44F
:1004000082E089833AC08823A9F0203080E0380751
:1004100080E0480780E8580729F460E070E080E059
:100420009FEC30C0EE24FF248701E21AF30A040B8C
:10043000150B02C079018A018EE1C82ED12CDC8215
:10044000CB82ED82FE820F831887C801B7010E941C
:10045000460201971816190684F4082E04C0EE0C03
:10046000FF1C001F111F0A94D2F7ED82FE820F833A
:100470001887C81AD90ADC82CB82BA82CE010196CB
:100480000E9495022896E9E00C94CA0BEF92FF9225
:100490000F931F937B018C0180E0E81680E0F80643
:1004A00081E0080780E0180788F48FEFE816F10470
:1004B0000105110531F028F088E090E0A0E0B0E0FF
:1004C00017C080E090E0A0E0B0E012C080E0E81645
:1004D00080E0F80680E0080781E0180728F088E14E
:1004E00090E0A0E0B0E004C080E190E0A0E0B0E0E7
:1004F00020E230E040E050E0281B390B4A0B5B0B58
:1005000004C016950795F794E7948A95D2F7F701FA
:10051000E85FFE4F8081281B310941095109C9015B
:100520001F910F91FF90EF900895DF92EF92FF924D
:100530000F931F93FC01E480F58006811781D18021
:100540008081823048F480E090E0A0E1B0E0E82AC9
:10055000F92A0A2B1B2BA5C0843009F49FC08230D6
:1005600021F4EE24FF24870105C0E114F104010504
:10057000110519F4E0E0F0E096C0628173819FEF0D
:10058000623879070CF05BC022E83FEF261B370B7F
:100590002A3131052CF020E030E040E050E02AC064
:1005A000B801A701022E04C0769567955795479527
:1005B0000A94D2F781E090E0A0E0B0E004C0880F98
:1005C000991FAA1FBB1F2A95D2F70197A109B1094C
:1005D0008E219F21A023B1230097A105B10521F011
:1005E00081E090E0A0E0B0E09A01AB01282B392B2C
:1005F0004A2B5B2BDA01C9018F779070A070B07025
:1006000080349105A105B10539F427FF09C0205CAC
:100610003F4F4F4F5F4F04C0215C3F4F4F4F5F4FE5
:10062000E0E0F0E02030A0E03A07A0E04A07A0E4D4
:100630005A0710F0E1E0F0E079018A0127C0603844
:10064000710564F5FB01E158FF4FD801C7018F77B1
:100650009070A070B07080349105A105B10539F497
:10066000E7FE0DC080E490E0A0E0B0E004C08FE3BE
:1006700090E0A0E0B0E0E80EF91E0A1F1B1F17FF74
:1006800005C016950795F794E794319687E016957F
:100690000795F794E7948A95D1F705C0EE24FF24D7
:1006A0008701EFEFF0E06E2F679566276795902F33
:1006B0009F77D794DD24D7948E2F8695492F462B8C
:1006C000582F5D29B701CA011F910F91FF90EF903C
:1006D000DF900895FC01DB01408151812281622F6E
:1006E0006F7770E0221F2227221F9381892F880FA6
:1006F000822B282F30E0991F9927991F11969C93E0
:10070000119721153105A9F54115510561057105AF
:1007100011F482E037C082E89FEF13969C938E938A
:1007200012979A01AB0167E0220F331F441F551F38
:100730006A95D1F783E08C930DC0220F331F441FBD
:10074000551F12968D919C911397019713969C9328
:100750008E931297203080E0380780E0480780E4CD
:10076000580758F314962D933D934D935C93179728
:1007700008952F3F310579F4411551056105710543
:1007800019F484E08C93089564FF03C081E08C9396
:1007900012C01C9210C02F57304013963C932E93DA
:1007A000129783E08C9387E0440F551F661F771FD5
:1007B0008A95D1F7706414964D935D936D937C93F5
:1007C000179708951F93DC01FB019C91923008F468
:1007D00047C08081823008F443C0943051F41196B0
:1007E0001C91843099F58181682F70E0611B71093B
:1007F0003FC0843021F0923031F48230B9F18181F0
:10080000882389F12DC011961C9111978230F1F047
:1008100081811817D9F412962D913C9113978281FA
:1008200093818217930794F028173907BCF0149628
:100830008D919D910D90BC91A02D24813581468193
:100840005781281739074A075B0718F4112341F02D
:100850000AC082179307A407B50740F4112319F0C3
:1008600061E070E005C06FEF7FEF02C060E070E014
:10087000CB011F91089581E292E00E9494058CE2E1
:1008800092E00E94940588EC90E090931E02809381
:100890001D0281E292E068EC70E042E00E94A40850
:1008A00060911D0270911E028CE292E041E00E9474
:1008B000A40880E090E0A0E8B0E48093090290935F
:1008C0000A02A0930B02B0930C0286E696E6A6E11C
:1008D000B0E48093150290931602A0931702B09390
:1008E00018028BED9FE0A9E4B1E480930D02909390
:1008F0000E02A0930F02B09310028DE69FE3ACEEC0
:10090000B0E48093110290931202A0931302B0936B
:10091000140260911D0270911E02882777FD809558
:10092000982F0E94E8019B01AC016DE67FE38CEEFD
:1009300090E40E940C016093190270931A02809354
:100940001B0290931C02109238021092370281E031
:1009500090E090933A028093390210923C021092F8
:100960003B021092480210924702EDE3F2E010823F
:100970001582319682E0E234F807C9F781E083837B
:10098000108608950F931F938C0149960E946B085F
:10099000C80184960E946B08F80110821F910F9184
:1009A0000895CF93DF93809151028823B1F1809114
:1009B0004C02882349F180914B028823D9F024C04E
:1009C000C2E0D0E0809108028823A1F0209791F046
:1009D00021978CE292E061E070E042E021E00E9429
:1009E000AE0781E292E061E070E042E021E00E9427
:1009F000AE07E8CF80910802882311F710924C02CD
:100A000088E092E00E94C20480914C02882319F48D
:100A100081E080934B0210925102DF91CF910895B3
:100A2000EF92FF920F931F9310924C0280E06DE3C0
:100A300075E043E050E00E94040908E012E01092E3
:100A4000080289E1E82EF12CE00EF11EC70164E6F0
:100A500070E00E9495050C5D1F4FC80164E670E0D0
:100A60000E949505C7010E946B08C8010E946B088F
:100A70001F910F91FF90EF9008950F931F93CF93C5
:100A8000DF9300E010E0C0E0D0E082E00E94060BBF
:100A9000892B11F00F5F1F4F2196C431D105A9F7A3
:100AA0000E94C90920914D0230914E0240914F029F
:100AB0005091500226503F4F4F4F5F4F2617370738
:100AC0004807590760F5B801882777FD8095982F6A
:100AD0000E94E80120E030E040E751E40E94B801C4
:100AE0001816ECF40E94C90960934D0270934E02EF
:100AF00080934F02909350028091080291E08927E1
:100B00008093080280934C02882321F488E092E0CD
:100B10000E94C20410924B0281E080935102DF9147
:100B2000CF911F910F91089508950F931F938C01FA
:100B3000FC0180819181689F9001699F300D789FB1
:100B4000300D112440E050E060E077E883E993E065
:100B50000E948A0BF80123833483458356831782CE
:100B60001086118612861F910F9108950895E0EB6B
:100B7000F0E090819368908387708093B100109229
:100B8000B3008BE061E00E948C0A0895E0EBF0E096
:100B900090819362908387708093B1001092B4002B
:100BA00083E061E00E948C0A089584B5836884BD67
:100BB00017BC86E061E00E948C0A089584B58362C8
:100BC00084BD18BC85E061E00E948C0A0895CF9333
:100BD000DF938CE060E00E94B20A88E060E00E944F
:100BE000B20AC7E0D0E084E060E00E94B20A8091DF
:100BF000530290E00C2E02C0959587950A94E2F777
:100C000080FF03C088E061E002C088E060E00E94ED
:100C1000B20A84E061E00E94B20A21978FEFCF3FD1
:100C2000D80709F78CE061E00E94B20ADF91CF910A
:100C300008958F929F92AF92BF92CF92DF92EF92E0
:100C4000FF920F931F93CF93DF93062FE42EFC01A7
:100C50009280F1E09F1669F4F090B3001091B40017
:100C600064E0A62E52E0B52E48E0D42E30E1C32E2B
:100C70000FC082E0981611F000E062C1F7B418B519
:100C800020E2A22EBB24B39490E8D92E80E4C82E93
:100C900080905302E82DF0E04A2D50E0CB2DD0E0BB
:100CA0009E01242B352BC9018E239F238217930786
:100CB00011F420E138C0AD2DB0E09D012C2B3D2B6F
:100CC000C9018E239F238217930711F420E32BC0C1
:100CD0006C2D70E09B012A2B3B2BC9018E239F2397
:100CE0008217930711F420E51EC09B01242B352B9E
:100CF000C9018E239F238217930711F420E713C0A5
:100D00004E235F23452B11F020E00DC0CE23DF23BF
:100D1000CD2B11F020E207C0AE23BF23AB2B11F483
:100D200020E601C020E4E1E0EE1631F4822F829546
:100D30008F7080FF13C01EC0F2E0EF16C1F4822F47
:100D400082958F7080FD0AC015C080599F4F282F53
:100D50002F7700E01FEFFF24FA94B3C0822F90E0BA
:100D6000013011F48096F3CF805A9F4FF0CF83E08B
:100D7000E81631F4822F90E0013039F74096E7CF42
:100D8000E8E0EE1611F000E09CC0013009F04CC024
:100D9000203110F4205F2F77FFEFFF1629F4822F08
:100DA00082958370833039F01F3F39F4822F82950A
:100DB0008370813011F4205E2F77203111F02035BF
:100DC000C9F41F3F11F480E103C0812F82958F7019
:100DD0008F5F61E10E945C0B092F903111F41FEFCE
:100DE00003C0192F1295107FF12EF094003109F0F5
:100DF00068C018C01F3F11F480E103C0812F8295A5
:100E00008F70805F61E10E945C0B092F903111F4BB
:100E10001FEF03C0192F1295107FF12EF0940023BD
:100E200009F04FC0205E4CC08FEFF81629F4822FD6
:100E300082958370813039F01F3F39F4822F82957B
:100E40008370833011F4205A2F77822F82958F7010
:100E500080FD02C020592F77203111F02035C1F4D8
:100E60001F3F11F480E103C0812F82958F70805F56
:100E700061E10E945C0B092F903111F41FEF03C058
:100E8000192F1295107FF12EF0940023D1F417C082
:100E90001F3F11F480E103C0812F82958F708F5F17
:100EA00061E10E945C0B092F903111F41FEF03C028
:100EB000192F1295107FF12EF094003111F4205A61
:100EC0002F77E1E09E1629F4F092B3001093B4005E
:100ED00005C0F2E09F1611F4F7BC18BD4B2D4A294E
:100EE0003C2D3D29932F942B90959821909353025C
:100EF000822F82958F708330B1F0843028F4813056
:100F000071F0823070F409C0853081F0853060F076
:100F1000863079F0873081F40BC09A290BC0942B6E
:100F200009C09B2907C0DB289D2904C0932B02C060
:100F3000CA289C299093530282E592E00E94E7051B
:100F4000802FDF91CF911F910F91FF90EF90DF9055
:100F5000CF90BF90AF909F908F9008955F926F92C7
:100F60007F928F929F92AF92BF92CF92DF92EF9239
:100F7000FF920F931F93CF93DF93EC016B01542EDD
:100F8000A22EEB80FC800D811E8123E0A216D1F4FD
:100F900016950795F794E794C801B70128EE33E05A
:100FA00040E050E00E94680B39014A01C801B701D6
:100FB00028EE33E040E050E00E94680B7B018C019A
:100FC000BB2440C088E0A81639F7E4E016950795E1
:100FD000F794E794EA95D1F774E0CC0CDD1C7A9590
:100FE000E1F7DACFCE01652D4A2D0E941906B82E01
:100FF000B301C4010E94D7098F819885A985BA855C
:101000008E0D9F1DA01FB11F8F839887A987BA8758
:10101000885E9340A040B04090F061E070E080E0D6
:1010200090E00E94D7098F819885A985BA85885E4E
:101030009340A040B0408F839887A987BA870894CF
:10104000C108D108C114D10469F688E0A81699F541
:101050002DC0CE01652D48E00E941906B82EB301BF
:10106000C4010E94D7098F819885A985BA858E0D04
:101070009F1DA01FB11F8F839887A987BA87885E9D
:101080009340A040B04090F061E070E080E090E0DC
:101090000E94D7098F819885A985BA85885E93407B
:1010A000A040B0408F839887A987BA87BB2019F0EA
:1010B00080E1B81671F6DF91CF911F910F91FF90EB
:1010C000EF90DF90CF90BF90AF909F908F907F90E8
:1010D0006F905F900895FC018281813051F480917E
:1010E0005302817E8093530282E592E00E94E705DD
:1010F0000895823049F4809153028E718093530297
:1011000082E592E00E94E70508950F931F938C01FA
:101110008CE061E00E948C0A87E061E00E948C0A0A
:1011200088E061E00E948C0A84E061E00E948C0A01
:1011300010925302C8010E94E70587E060E00E9418
:10114000B20A1F910F910895EF92FF920F93CF93E0
:10115000DF93EC017B01042F82E592E00E94850879
:10116000F982E8820A83013029F580915302817E59
:101170008093530282E592E00E94E7058BE061E0F4
:101180000E948C0A83E061E00E948C0A8BE061E09F
:101190000E94B20A83E061E00E94B20A81E00E94EC
:1011A000B70581E00E94C6058FEF8093B30080935E
:1011B000B40024C0023011F5809153028E718093E7
:1011C000530282E592E00E94E70585E061E00E941B
:1011D0008C0A86E061E00E948C0A85E061E00E9452
:1011E000B20A86E061E00E94B20A81E00E94D50561
:1011F00081E00E94DE058FEF87BD88BDDF91CF9132
:101200000F91FF90EF900895823000F5E82FF0E005
:10121000EE0FFF1FEC5AFD4F71836083882319F096
:101220008130A1F408C0809169008C7F842B809369
:101230006900E89A089580916900440F551F440F92
:10124000551F837F842B80936900E99A08951F922C
:101250000F920FB60F9211242F933F934F935F93EA
:101260006F937F938F939F93AF93BF93EF93FF936E
:101270008091540290915502892B29F0E0915402FB
:10128000F09155020995FF91EF91BF91AF919F9118
:101290008F917F916F915F914F913F912F910F901F
:1012A0000FBE0F901F9018951F920F920FB60F92BE
:1012B00011242F933F934F935F936F937F938F935B
:1012C0009F93AF93BF93EF93FF93809156029091BA
:1012D0005702892B29F0E0915602F09157020995A7
:1012E000FF91EF91BF91AF919F918F917F916F91FE
:1012F0005F914F913F912F910F900FBE0F901F90D4
:1013000018951F920F920FB60F9211242F933F93AF
:101310008F939F93AF93BF9380915C0290915D02F6
:10132000A0915E02B0915F02309160020196A11D12
:10133000B11D232F2D5F2D3720F02D570196A11DB4
:10134000B11D2093600280935C0290935D02A09394
:101350005E02B0935F028091580290915902A09171
:101360005A02B0915B020196A11DB11D80935802F3
:1013700090935902A0935A02B0935B02BF91AF9130
:101380009F918F913F912F910F900FBE0F901F90C3
:1013900018958FB7F89420915C0230915D024091CE
:1013A0005E0250915F028FBFB901CA0108956F922A
:1013B0007F928F929F92AF92BF92CF92DF92EF92E5
:1013C000FF920F931F93CF93DF933B014C013FB7E5
:1013D000F8948091580290915902A0915A02B091CC
:1013E0005B0226B5A89B05C02F3F19F00196A11DF1
:1013F000B11D3FBFAA24B82EC92EDA2EA20EB11CF1
:10140000C11CD11C9501A60160E070E080E090E075
:1014100002E00E948D00E90131C03FB7F89480914D
:10142000580290915902A0915A02B0915B0226B5E0
:10143000A89B05C02F3F19F00196A11DB11D3FBF0C
:10144000AA24B82EC92EDA2EA20EB11CC11CD11CA2
:101450009501A60160E070E080E090E002E00E946B
:101460008D00C9018C1B9D0B885E9340B0F20894DF
:101470006108710881089108C851DC4F611471043A
:101480008104910451F6DF91CF911F910F91FF904C
:10149000EF90DF90CF90BF90AF909F908F907F9014
:1014A0006F900895789484B5826084BD84B581601E
:1014B00084BD85B5826085BD85B5816085BDEEE65C
:1014C000F0E0808181608083E1E8F0E080818260EB
:1014D0008083808181608083E0E8F0E080818160AA
:1014E0008083E1EBF0E0808184608083E0EBF0E0DA
:1014F000808181608083EAE7F0E08081846080837E
:101500008081826080838081816080838081806827
:1015100080831092C1000895482F50E0CA0186567A
:101520009F4FFC0124914A575F4FFA018491882311
:10153000C1F0E82FF0E0EE0FFF1FE859FF4FA59133
:10154000B491662341F49FB7F8948C91209582233F
:101550008C939FBF08959FB7F8948C91822B8C93A6
:101560009FBF0895482F50E0CA0182559F4FFC014C
:101570002491CA0186569F4FFC0134914A575F4F10
:10158000FA019491992309F440C0222331F12330C8
:1015900021F4809180008F7705C0243031F4809150
:1015A00080008F7D8093800018C0213019F484B5AD
:1015B0008F7704C0223021F484B58F7D84BD0DC0A7
:1015C000263021F48091B0008F7705C0273029F4B0
:1015D0008091B0008F7D8093B000E92FF0E0EE0F96
:1015E000FF1FEE58FF4FA591B491662341F49FB7BA
:1015F000F8948C91309583238C939FBF08959FB767
:10160000F8948C91832B8C939FBF0895682F70E082
:10161000CB0182559F4FFC012491CB0186569F4FF1
:10162000FC0144916A577F4FFB019491992319F46F
:1016300020E030E038C0222331F1233021F48091C2
:1016400080008F7705C0243031F4809180008F7D39
:101650008093800018C0213019F484B58F7704C0BE
:10166000223021F484B58F7D84BD0DC0263021F455
:101670008091B0008F7705C0273029F48091B000A9
:101680008F7D8093B000892F90E0880F991F845838
:101690009F4FFC01A591B4918C9120E030E0842310
:1016A00011F021E030E0C90108950E94520A0E9421
:1016B00010050E94D104FDCF991B79E004C0991F49
:1016C000961708F0961B881F7A95C9F7809508959C
:1016D000A1E21A2EAA1BBB1BFD010DC0AA1FBB1F36
:1016E000EE1FFF1FA217B307E407F50720F0A21BA8
:1016F000B30BE40BF50B661F771F881F991F1A9415
:1017000069F760957095809590959B01AC01BD013E
:10171000CF01089597FB092E05260ED057FD04D062
:10172000D7DF0AD0001C38F45095409530952195AC
:101730003F4F4F4F5F4F0895F6F790958095709506
:1017400061957F4F8F4F9F4F08952F923F924F92F9
:101750005F926F927F928F929F92AF92BF92CF9241
:10176000DF92EF92FF920F931F93CF93DF93CDB74A
:10177000DEB7CA1BDB0B0FB6F894DEBF0FBECDBFC2
:1017800009942A88398848885F846E847D848C8493
:101790009B84AA84B984C884DF80EE80FD800C819C
:1017A0001B81AA81B981CE0FD11D0FB6F894DEBF7F
:1017B0000FBECDBFED010895EE0FFF1F0590F49110
:0817C000E02D0994F894FFCF1D
:1017C8000000000000000000000102020303030300
:1017D80004040404040404040505050505050505B9
:1017E8000505050505050505060606060606060699
:1017F8000606060606060606060606060606060681
:101808000606060606060606070707070707070768
:101818000707070707070707070707070707070750
:101828000707070707070707070707070707070740
:101838000707070707070707070707070707070730
:101848000707070707070707080808080808080818
:101858000808080808080808080808080808080800
:1018680008080808080808080808080808080808F0
:1018780008080808080808080808080808080808E0
:1018880008080808080808080808080808080808D0
:1018980008080808080808080808080808080808C0
:1018A80008080808080808080808080808080808B0
:1018B80008080808080808080808080808080808A0
:0818C8000808080808080808D8
:00000001FF
