:100000000C9463000C94F4060C9421070C948B0060
:100010000C948B000C948B000C948B000C948B0034
:100020000C948B000C948B000C948B000C948B0024
:100030000C948B000C948B000C948B000C948B0014
:100040000C944E070C948B000C948B000C948B003A
:100050000C948B000C948B000C948B000C948B00F4
:100060000C948B000C948B000000000024002700EF
:100070002A0000000000250028002B0000000000DE
:1000800023002600290004040404040404040202DA
:100090000202020203030303030301020408102007
:1000A0004080010204081020010204081020000012
:1000B0000007000201000003040600000000000029
:1000C000000000051E0911241FBECFEFD8E0DEBFDF
:1000D000CDBF12E0A0E0B1E0E8EEF9E102C005908A
:1000E0000D92AA30B107D9F712E0AAE0B2E001C040
:1000F0001D92A336B107E1F710E0C6ECD0E004C0D2
:100100002297FE010E94EE0CC23CD107C9F70E9463
:10011000F5080C94F20C0C940000EF92FF920F93F0
:10012000DF93CF93CDB7DEB760970FB6F894DEBFFD
:100130000FBECDBFA82F002309F461C07E01089433
:10014000E11CF11C88E0F70111928A95E9F72983F7
:100150003A834B835C836D837E83AF83988780E291
:10016000801BE82FFF27E7FDF09549815A816B81BD
:100170007C81181684F019861A861B861C868827AF
:1001800099278E1B9F0B04C0440F551F661F771FB6
:100190008A95D2F728C0202F332727FD3095DB0121
:1001A000CA01022E04C0880F991FAA1FBB1F0A9400
:1001B000D2F789879A87AB87BC8704C07695679505
:1001C00057954795EA95D2F78D819E81AF81B88585
:1001D00004C0880F991FAA1FBB1F2A95D2F7482B6E
:1001E000592B6A2B7B2B4D875E876F87788B2985F0
:1001F0003A854B855C856D857E85AF8598898A2F8C
:1002000060960FB6F894DEBF0FBECDBFCF91DF91E1
:100210000F91FF90EF900895A0E2B0E0E2E1F1E0ED
:100220000C94B50C69837A838B839C832D833E83E6
:100230004F835887CE010196BE01675F7F4F0E94B2
:100240008804CE010596BE016F5E7F4F0E94880430
:100250009985923088F089898230C8F0943019F4F9
:10026000823051F404C0843029F4923081F480E06B
:1002700091E0C6C0923049F420E09A858A899813AB
:1002800021E02A87CE010996BBC0823049F420E0E4
:100290009A858A89981321E02A8BCE014196B0C0B5
:1002A0002D843E844F8458886D887E888F88988CF2
:1002B000EE24FF248701AA24BB24650140E050E01E
:1002C00060E070E0E0E0F0E0C10181709070892BA7
:1002D000E9F0E60CF71C081D191D9A01AB012A0D67
:1002E0003B1D4C1D5D1D80E090E0A0E0B0E0E614F9
:1002F000F7040805190520F481E090E0A0E0B0E0E3
:10030000BA01A901480F591F6A1F7B1FAA0CBB1C09
:10031000CC1CDD1C97FE08C081E090E0A0E0B0E0BE
:10032000A82AB92ACA2ADB2A3196E032F10549F017
:10033000660C771C881C991C569447943794279414
:10034000C3CFFA85EA892B893C898B859C85280F48
:10035000391F2E5F3F4F17C0CA0181709070892BE3
:1003600061F016950795F794E79480E090E0A0E09F
:10037000B0E8E82AF92A0A2B1B2B76956795579542
:1003800047952F5F3F4F77FDE7CF0CC0440F551FB8
:10039000661F771F17FD4160EE0CFF1C001F111F29
:1003A00021503040403090E0590790E0690790E4D8
:1003B000790760F32B8F3C8FDB01CA018F77907038
:1003C000A070B07080349105A105B10561F447FDBE
:1003D0000AC0E114F1040105110529F0405C5F4FEA
:1003E0006F4F7F4F40781A8EFE1711F081E08A8F91
:1003F0004D8F5E8F6F8F78A383E0898FCE014996F2
:100400000E94B303A096E2E10C94D10CA8E1B0E005
:10041000ECE0F2E00C94BD0C69837A838B839C83BF
:100420002D833E834F835887B9E0EB2EF12CEC0EE1
:10043000FD1ECE010196B7010E9488048E010F5E59
:100440001F4FCE010596B8010E94880429852230ED
:1004500008F47EC03989323010F4B8017CC08A8536
:100460009A8989278A87243011F0223031F42317A2
:1004700009F06EC060E071E06EC0343039F41D8662
:100480001E861F86188A1C861B8604C0323021F403
:1004900084E08987B7015FC02B853C858B899C8967
:1004A000281B390B3C872B87ED84FE840F85188928
:1004B000AD88BE88CF88D88CEA14FB040C051D05D6
:1004C00040F4EE0CFF1C001F111F215030403C87F0
:1004D0002B8720E030E040E050E080E090E0A0E0BA
:1004E000B0E460E070E0EA14FB040C051D0540F088
:1004F000282B392B4A2B5B2BEA18FB080C091D090A
:10050000B695A79597958795EE0CFF1C001F111FB8
:100510006F5F7F4F6F31710531F7DA01C9018F7756
:100520009070A070B07080349105A105B10561F4A0
:1005300027FD0AC0E114F1040105110529F0205C32
:100540003F4F4F4F5F4F20782D873E874F87588B07
:10055000BE01675F7F4FCB010E94B3036896EAE05C
:100560000C94D90CA8E0B0E0E8EBF2E00C94BE0CDF
:100570009B01AC0183E08983DA01C9018827B7FDBB
:1005800083959927AA27BB27B82E21153105410548
:10059000510519F482E089833AC08823A9F02030FC
:1005A00080E0380780E0480780E8580729F460E0D9
:1005B00070E080E09FEC30C0EE24FF248701E21A57
:1005C000F30A040B150B02C079018A018EE1C82ED3
:1005D000D12CDC82CB82ED82FE820F831887C8018A
:1005E000B7010E94640301971816190684F4082EB7
:1005F00004C0EE0CFF1C001F111F0A94D2F7ED82FD
:10060000FE820F831887C81AD90ADC82CB82BA828D
:10061000CE0101960E94B3032896E9E00C94DA0C0F
:10062000ACE0B0E0E6E1F3E00C94C50C69837A83BA
:100630008B839C83CE010196BE016B5F7F4F0E942E
:1006400088048D81823061F1823050F1843021F450
:100650008E81882351F12EC02F81388537FD20C02F
:100660006E812F3131051CF06623F9F023C08EE135
:1006700090E0821B930B29853A854B855C8504C0ED
:1006800056954795379527958A95D2F76623B1F009
:1006900050954095309521953F4F4F4F5F4F0EC07D
:1006A00020E030E040E050E009C02FEF3FEF4FEF97
:1006B0005FE704C020E030E040E050E8B901CA0143
:1006C0002C96E2E00C94E10CEF92FF920F931F93B3
:1006D0007B018C0180E0E81680E0F80681E00807E5
:1006E00080E0180788F48FEFE816F1040105110582
:1006F00031F028F088E090E0A0E0B0E017C080E0A2
:1007000090E0A0E0B0E012C080E0E81680E0F806DB
:1007100080E0080781E0180728F088E190E0A0E079
:10072000B0E004C080E190E0A0E0B0E020E230E082
:1007300040E050E0281B390B4A0B5B0B04C01695B8
:100740000795F794E7948A95D2F7F701E85FFE4F93
:100750008081281B310941095109C9011F910F915D
:10076000FF90EF900895DF92EF92FF920F931F9307
:10077000FC01E480F58006811781D1808081823080
:1007800048F480E090E0A0E1B0E0E82AF92A0A2BE2
:100790001B2BA5C0843009F49FC0823021F4EE24C5
:1007A000FF24870105C0E114F1040105110519F4C6
:1007B000E0E0F0E096C0628173819FEF62387907D4
:1007C0000CF05BC022E83FEF261B370B2A313105C6
:1007D0002CF020E030E040E050E02AC0B801A70152
:1007E000022E04C076956795579547950A94D2F7DF
:1007F00081E090E0A0E0B0E004C0880F991FAA1F3C
:10080000BB1F2A95D2F70197A109B1098E219F211B
:10081000A023B1230097A105B10521F081E090E06C
:10082000A0E0B0E09A01AB01282B392B4A2B5B2BBF
:10083000DA01C9018F779070A070B0708034910593
:10084000A105B10539F427FF09C0205C3F4F4F4F88
:100850005F4F04C0215C3F4F4F4F5F4FE0E0F0E03F
:100860002030A0E03A07A0E04A07A0E45A0710F0C1
:10087000E1E0F0E079018A0127C06038710564F594
:10088000FB01E158FF4FD801C7018F779070A0702E
:10089000B07080349105A105B10539F4E7FE0DC0B3
:1008A00080E490E0A0E0B0E004C08FE390E0A0E03E
:1008B000B0E0E80EF91E0A1F1B1F17FF05C01695B2
:1008C0000795F794E794319687E016950795F79486
:1008D000E7948A95D1F705C0EE24FF248701EFEF56
:1008E000F0E06E2F679566276795902F9F77D794D6
:1008F000DD24D7948E2F8695492F462B582F5D29BE
:10090000B701CA011F910F91FF90EF90DF900895FA
:10091000FC01DB01408151812281622F6F7770E001
:10092000221F2227221F9381892F880F822B282F95
:1009300030E0991F9927991F11969C9311972115C3
:100940003105A9F5411551056105710511F482E0E4
:1009500037C082E89FEF13969C938E9312979A016B
:10096000AB0167E0220F331F441F551F6A95D1F773
:1009700083E08C930DC0220F331F441F551F129626
:100980008D919C911397019713969C938E93129738
:10099000203080E0380780E0480780E4580758F3AB
:1009A00014962D933D934D935C93179708952F3F85
:1009B000310579F4411551056105710519F484E09B
:1009C0008C93089564FF03C081E08C9312C01C9245
:1009D00010C02F57304013963C932E93129783E00C
:1009E0008C9387E0440F551F661F771F8A95D1F7B8
:1009F000706414964D935D936D937C93179708954F
:100A000083E292E00E94FC088EE292E00E94FC08E1
:100A100088EC90E09093200280931F0283E292E0A2
:100A200068EC70E042E00E940C0C60911F02709133
:100A300020028EE292E041E00E940C0C80E090E007
:100A4000A0E8B0E480930B0290930C02A0930D02F7
:100A5000B0930E0286E696E6A6E1B0E48093170214
:100A600090931802A0931902B0931A028BED9FE0A5
:100A7000A9E4B1E480930F0290931002A0931102B5
:100A8000B09312028DE69FE3ACEEB0E480931302C4
:100A900090931402A0931502B093160260911F0266
:100AA00070912002882777FD8095982F0E94B202CE
:100AB0009B01AC016DE67FE38CEE90E40E940602A0
:100AC00060931B0270931C0280931D0290931E0280
:100AD00010923A021092390281E090E090933C0229
:100AE00080933B0210923E0210923D0210924A0205
:100AF00010924902EFE3F2E010821582319682E013
:100B0000E434F807C9F781E08383108608950F93D2
:100B10001F938C0149960E94D30BC80184960E94B2
:100B2000D30BF80110821F910F910895CF93DF939B
:100B300080915302882309F4BEC080914E0288231D
:100B400009F483C080914D02882309F473C07DC0ED
:100B5000C2E0D0E080910A02882309F480C0209787
:100B600009F47DC021978EE292E061E070E042E0FE
:100B700021E00E94160B83E292E061E070E042E027
:100B800021E00E94160BE6CF80913B020E9459089B
:100B90008D52914044F560910F0270911002809146
:100BA00011029091120220E030E040E05FE30E94E9
:100BB0000C0120911B0230911C0240911D025091AA
:100BC0001E020E9406020E941003EB0180910A029D
:100BD000882319F0209709F04AC064E670E080E0AD
:100BE00090E00E94A40760910F0270911002809122
:100BF00011029091120220E030E040E85EE30E9492
:100C00000C0120911B0230911C0240911D02509159
:100C10001E020E9406020E941003EB0180910A024C
:100C2000882311F02097A9F564E670E080E090E059
:100C30000E94A40780910A02882309F089CF1092AC
:100C40004E028AE092E00E94870580914E0288233E
:100C500019F481E080934D02109253022CC08091D0
:100C600039020E945908855F914024F38DCF219766
:100C700083E292E061E070E041E022E00E94160B26
:100C80008EE292E061E070E042E022E00E94160B0A
:100C90009DCF219783E292E061E070E042E022E0A4
:100CA0000E94160B8EE292E061E070E041E022E0EB
:100CB0000E94160BB3CFDF91CF910895EF92FF9270
:100CC0000F931F938C01FC01108289E1E82EF12C17
:100CD000E00EF11EC70164E670E00E94FD080C5DA5
:100CE0001F4FC80164E670E00E94FD08C7010E9422
:100CF000D30BC8010E94D30B1F910F91FF90EF906F
:100D000008950F931F9310924E0280E060EA76E000
:100D100043E050E00E94D1060AE012E0C8010E94C0
:100D20005E06C8010E945E06C8010E945E06C801F8
:100D30000E945E06C8010E945E061F910F910895F1
:100D40000E94960720914F0230915002409151022B
:100D50005091520226503F4F4F4F5F4F2617370793
:100D600048075907E8F40E94960760934F02709372
:100D70005002809351029093520280910A0291E0B6
:100D8000892780930A0280934E02882321F48AE007
:100D900092E00E94870510924D0281E080935302F9
:100DA0000895823000F5E82FF0E0EE0FFF1FEC5AB7
:100DB000FD4F71836083882319F08130A1F408C04E
:100DC000809169008C7F842B80936900E89A089554
:100DD00080916900440F551F440F551F837F842B5A
:100DE00080936900E99A08951F920F920FB60F92AF
:100DF00011242F933F934F935F936F937F938F9320
:100E00009F93AF93BF93EF93FF9380915402909180
:100E10005502892B29F0E0915402F0915502099571
:100E2000FF91EF91BF91AF919F918F917F916F91C2
:100E30005F914F913F912F910F900FBE0F901F9098
:100E400018951F920F920FB60F9211242F933F9374
:100E50004F935F936F937F938F939F93AF93BF93C2
:100E6000EF93FF938091560290915702892B29F0BE
:100E7000E0915602F09157020995FF91EF91BF91D1
:100E8000AF919F918F917F916F915F914F913F9122
:100E90002F910F900FBE0F901F9018951F920F92D9
:100EA0000FB60F9211242F933F938F939F93AF937D
:100EB000BF9380915C0290915D02A0915E02B0911F
:100EC0005F02309160020196A11DB11D232F2D5F9D
:100ED0002D3720F02D570196A11DB11D20936002E2
:100EE00080935C0290935D02A0935E02B0935F02D8
:100EF0008091580290915902A0915A02B0915B02E0
:100F00000196A11DB11D8093580290935902A093A0
:100F10005A02B0935B02BF91AF919F918F913F9125
:100F20002F910F900FBE0F901F9018958FB7F894C8
:100F300020915C0230915D0240915E0250915F020F
:100F40008FBFB901CA0108956F927F928F929F92CD
:100F5000AF92BF92CF92DF92EF92FF920F931F93C7
:100F6000CF93DF933B014C013FB7F8948091580237
:100F700090915902A0915A02B0915B0226B5A89BAC
:100F800005C02F3F19F00196A11DB11D3FBFAA2436
:100F9000B82EC92EDA2EA20EB11CC11CD11C95018F
:100FA000A60160E070E080E090E002E00E948D0029
:100FB000E90131C03FB7F8948091580290915902ED
:100FC000A0915A02B0915B0226B5A89B05C02F3FA5
:100FD00019F00196A11DB11D3FBFAA24B82EC92E3C
:100FE000DA2EA20EB11CC11CD11C9501A60160E035
:100FF00070E080E090E002E00E948D00C9018C1B4F
:101000009D0B885E9340B0F20894610871088108D6
:101010009108C851DC4F611471048104910451F6A8
:10102000DF91CF911F910F91FF90EF90DF90CF90C4
:10103000BF90AF909F908F907F906F90089578941D
:1010400084B5826084BD84B5816084BD85B58260CD
:1010500085BD85B5816085BDEEE6F0E0808181606B
:101060008083E1E8F0E0808182608083808181601C
:101070008083E0E8F0E0808181608083E1EBF0E054
:10108000808184608083E0EBF0E0808181608083F8
:10109000EAE7F0E0808184608083808182608083E1
:1010A0008081816080838081806880831092C1000C
:1010B0000895982F8E3008F09E5097708091080206
:1010C0008295880F880F807C892B80937C0080918B
:1010D0007A00806480937A0080917A0086FDFCCF4C
:1010E0002091780040917900942F80E030E0282B07
:1010F000392BC9010895482F50E0CA0186569F4FE9
:10110000FC0124914A575F4FFA0184918823C1F072
:10111000E82FF0E0EE0FFF1FE859FF4FA591B491C3
:10112000662341F49FB7F8948C91209582238C9389
:101130009FBF08959FB7F8948C91822B8C939FBF8B
:101140000895482F50E0CA0182559F4FFC01249119
:10115000CA0186569F4FFC0134914A575F4FFA01EE
:101160009491992309F440C0222331F1233021F4D2
:10117000809180008F7705C0243031F48091800009
:101180008F7D8093800018C0213019F484B58F774B
:1011900004C0223021F484B58F7D84BD0DC026307B
:1011A00021F48091B0008F7705C0273029F4809119
:1011B000B0008F7D8093B000E92FF0E0EE0FFF1FAD
:1011C000EE58FF4FA591B491662341F49FB7F89470
:1011D0008C91309583238C939FBF08959FB7F8948B
:1011E0008C91832B8C939FBF08950E941F080E94AF
:1011F00081060E949605FDCF08950F931F938C01E1
:10120000FC0180819181689F9001699F300D789FDA
:10121000300D112440E050E060E077E883E993E08E
:101220000E949A0CF80123833483458356831782E6
:101230001086118612861F910F9108950895E0EB94
:10124000F0E090819368908387708093B100109252
:10125000B3008BE061E00E947B080895E0EBF0E0D2
:1012600090819362908387708093B1001092B40054
:1012700083E061E00E947B08089584B5836884BDA3
:1012800017BC86E061E00E947B08089584B5836204
:1012900084BD18BC85E061E00E947B080895CF936F
:1012A000DF938CE060E00E94A10888E060E00E948B
:1012B000A108C7E0D0E084E060E00E94A10880912E
:1012C000620290E00C2E02C0959587950A94E2F791
:1012D00080FF03C088E061E002C088E060E00E9417
:1012E000A10884E061E00E94A10821978FEFCF3F21
:1012F000D80709F78CE061E00E94A108DF91CF9147
:1013000008958F929F92AF92BF92CF92DF92EF9209
:10131000FF920F931F93CF93DF93062FE42EFC01D0
:101320009280F1E09F1669F4F090B3001091B40040
:1013300064E0A62E52E0B52E48E0D42E30E1C32E54
:101340000FC082E0981611F000E062C1F7B418B542
:1013500020E2A22EBB24B39490E8D92E80E4C82EBC
:1013600080906202E82DF0E04A2D50E0CB2DD0E0D5
:101370009E01242B352BC9018E239F2382179307AF
:1013800011F420E138C0AD2DB0E09D012C2B3D2B98
:10139000C9018E239F238217930711F420E32BC0EA
:1013A0006C2D70E09B012A2B3B2BC9018E239F23C0
:1013B0008217930711F420E51EC09B01242B352BC7
:1013C000C9018E239F238217930711F420E713C0CE
:1013D0004E235F23452B11F020E00DC0CE23DF23E9
:1013E000CD2B11F020E207C0AE23BF23AB2B11F4AD
:1013F00020E601C020E4E1E0EE1631F4822F829570
:101400008F7080FF13C01EC0F2E0EF16C1F4822F70
:1014100082958F7080FD0AC015C080599F4F282F7C
:101420002F7700E01FEFFF24FA94B3C0822F90E0E3
:10143000013011F48096F3CF805A9F4FF0CF83E0B4
:10144000E81631F4822F90E0013039F74096E7CF6B
:10145000E8E0EE1611F000E09CC0013009F04CC04D
:10146000203110F4205F2F77FFEFFF1629F4822F31
:1014700082958370833039F01F3F39F4822F829533
:101480008370813011F4205E2F77203111F02035E8
:10149000C9F41F3F11F480E103C0812F82958F7042
:1014A0008F5F61E10E946C0C092F903111F41FEFE6
:1014B00003C0192F1295107FF12EF094003109F01E
:1014C00068C018C01F3F11F480E103C0812F8295CE
:1014D0008F70805F61E10E946C0C092F903111F4D4
:1014E0001FEF03C0192F1295107FF12EF0940023E7
:1014F00009F04FC0205E4CC08FEFF81629F4822F00
:1015000082958370813039F01F3F39F4822F8295A4
:101510008370833011F4205A2F77822F82958F7039
:1015200080FD02C020592F77203111F02035C1F401
:101530001F3F11F480E103C0812F82958F70805F7F
:1015400061E10E946C0C092F903111F41FEF03C070
:10155000192F1295107FF12EF0940023D1F417C0AB
:101560001F3F11F480E103C0812F82958F708F5F40
:1015700061E10E946C0C092F903111F41FEF03C040
:10158000192F1295107FF12EF094003111F4205A8A
:101590002F77E1E09E1629F4F092B3001093B40087
:1015A00005C0F2E09F1611F4F7BC18BD4B2D4A2977
:1015B0003C2D3D29932F942B909598219093620276
:1015C000822F82958F708330B1F0843028F481307F
:1015D00071F0823070F409C0853081F0853060F0A0
:1015E000863079F0873081F40BC09A290BC0942B98
:1015F00009C09B2907C0DB289D2904C0932B02C08A
:10160000CA289C299093620281E692E00E944F09C9
:10161000802FDF91CF911F910F91FF90EF90DF907E
:10162000CF90BF90AF909F908F9008955F926F92F0
:101630007F928F929F92AF92BF92CF92DF92EF9262
:10164000FF920F931F93CF93DF93EC016B01542E06
:10165000A22EEB80FC800D811E8123E0A216D1F426
:1016600016950795F794E794C801B70128EE33E083
:1016700040E050E00E94780C39014A01C801B701EE
:1016800028EE33E040E050E00E94780C7B018C01B2
:10169000BB2440C088E0A81639F7E4E0169507950A
:1016A000F794E794EA95D1F774E0CC0CDD1C7A95B9
:1016B000E1F7DACFCE01652D4A2D0E948109B82EBF
:1016C000B301C4010E94A4078F819885A985BA85BA
:1016D0008E0D9F1DA01FB11F8F839887A987BA8782
:1016E000885E9340A040B04090F061E070E080E000
:1016F00090E00E94A4078F819885A985BA85885EAD
:101700009340A040B0408F839887A987BA870894F8
:10171000C108D108C114D10469F688E0A81699F56A
:101720002DC0CE01652D48E00E948109B82EB3017D
:10173000C4010E94A4078F819885A985BA858E0D62
:101740009F1DA01FB11F8F839887A987BA87885EC6
:101750009340A040B04090F061E070E080E090E005
:101760000E94A4078F819885A985BA85885E9340D9
:10177000A040B0408F839887A987BA87BB2019F013
:1017800080E1B81671F6DF91CF911F910F91FF9014
:10179000EF90DF90CF90BF90AF909F908F907F9011
:1017A0006F905F900895FC018281813051F48091A7
:1017B0006202817E8093620281E692E00E944F097C
:1017C0000895823049F4809162028E7180936202A2
:1017D00081E692E00E944F0908950F931F938C01B8
:1017E0008CE061E00E947B0887E061E00E947B085A
:1017F00088E061E00E947B0884E061E00E947B0851
:1018000010926202C8010E944F0987E060E00E94C6
:10181000A1081F910F910895EF92FF920F93CF931C
:10182000DF93EC017B01042F81E692E00E94ED0B37
:10183000F982E8820A83013029F580916202817E73
:101840008093620281E692E00E944F098BE061E0A2
:101850000E947B0883E061E00E947B088BE061E0EE
:101860000E94A10883E061E00E94A10881E00E943B
:101870001F0981E00E942E098FEF8093B3008093AF
:10188000B40024C0023011F5809162028E71809301
:10189000620281E692E00E944F0985E061E00E94C9
:1018A0007B0886E061E00E947B0885E061E00E94A1
:1018B000A10886E061E00E94A10881E00E943D0944
:1018C00081E00E9446098FEF87BD88BDDF91CF91EF
:1018D0000F91FF90EF900895991B79E004C0991F34
:1018E000961708F0961B881F7A95C9F7809508957A
:1018F000A1E21A2EAA1BBB1BFD010DC0AA1FBB1F14
:10190000EE1FFF1FA217B307E407F50720F0A21B85
:10191000B30BE40BF50B661F771F881F991F1A94F2
:1019200069F760957095809590959B01AC01BD011C
:10193000CF01089597FB092E05260ED057FD04D040
:10194000D7DF0AD0001C38F450954095309521958A
:101950003F4F4F4F5F4F0895F6F7909580957095E4
:1019600061957F4F8F4F9F4F08952F923F924F92D7
:101970005F926F927F928F929F92AF92BF92CF921F
:10198000DF92EF92FF920F931F93CF93DF93CDB728
:10199000DEB7CA1BDB0B0FB6F894DEBF0FBECDBFA0
:1019A00009942A88398848885F846E847D848C8471
:1019B0009B84AA84B984C884DF80EE80FD800C817A
:1019C0001B81AA81B981CE0FD11D0FB6F894DEBF5D
:1019D0000FBECDBFED010895EE0FFF1F0590F491EE
:0819E000E02D0994F894FFCFFB
:1019E80000000000000000000001020203030303DE
:1019F8000404040404040404050505050505050597
:101A08000505050505050505060606060606060676
:101A1800060606060606060606060606060606065E
:101A28000606060606060606070707070707070746
:101A3800070707070707070707070707070707072E
:101A4800070707070707070707070707070707071E
:101A5800070707070707070707070707070707070E
:101A680007070707070707070808080808080808F6
:101A780008080808080808080808080808080808DE
:101A880008080808080808080808080808080808CE
:101A980008080808080808080808080808080808BE
:101AA80008080808080808080808080808080808AE
:101AB800080808080808080808080808080808089E
:101AC800080808080808080808080808080808088E
:101AD800080808080808080808080808080808087E
:0A1AE80008080808080808080100B3
:00000001FF
