:100000000C9462000C948A000C948A000C948A0070
:100010000C948A000C948A000C948A000C948A0038
:100020000C948A000C948A000C948A000C94C802E8
:100030000C948A000C948A000C948A000C948A0018
:100040000C9485030C948A000C948A000C948A000A
:100050000C948A000C948A000C948A000C948A00F8
:100060000C948A000C948A000000000024002700F1
:100070002A0000000000250028002B0000000000DE
:1000800023002600290004040404040404040202DA
:100090000202020203030303030301020408102007
:1000A0004080010204081020010204081020000012
:1000B0000007000201000003040600000000000029
:1000C00000002C0111241FBECFEFD8E0DEBFCDBF52
:1000D00011E0A0E0B1E0E8EAFCE002C005900D927A
:1000E000A230B107D9F711E0A2E0B1E001C01D9242
:1000F000AE36B107E1F710E0C4ECD0E004C02297BF
:10010000FE010E944E06C23CD107C9F70E94B60507
:100110000C9452060C940000EF92FF920F93DF9321
:10012000CF93CDB7DEB760970FB6F894DEBF0FBEA2
:10013000CDBFA82F002309F461C07E010894E11C03
:10014000F11C88E0F70111928A95E9F729833A8337
:100150004B835C836D837E83AF83988780E2801BB3
:10016000E82FFF27E7FDF09549815A816B817C815B
:10017000181684F019861A861B861C8688279927EC
:100180008E1B9F0B04C0440F551F661F771F8A9557
:10019000D2F728C0202F332727FD3095DB01CA0175
:1001A000022E04C0880F991FAA1FBB1F0A94D2F702
:1001B00089879A87AB87BC8704C0769567955795E2
:1001C0004795EA95D2F78D819E81AF81B88504C0AD
:1001D000880F991FAA1FBB1F2A95D2F7482B592BAE
:1001E0006A2B7B2B4D875E876F87788B29853A85B5
:1001F0004B855C856D857E85AF8598898A2F609655
:100200000FB6F894DEBF0FBECDBFCF91DF910F9137
:10021000FF90EF900895CF92DF92EF92FF920F93AD
:100220001F938C016B017A0108960E942802F80145
:10023000C082D182F382E2828C2D61E00E94A4040C
:10024000F801828160E00E94A4041F910F91FF9049
:10025000EF90DF90CF90089582E091E063E070E04E
:100260004EE050E00E940B018FE091E065E070E00D
:100270004FE050E00E940B018CE191E066E070E0FD
:1002800040E150E00E940B0189E291E06BE070E0F8
:1002900041E150E00E940B011092370110923601AB
:1002A000109239011092380110923B0110923A01DC
:1002B00010923D0110923C010895AF92BF92CF92EF
:1002C000DF92EF92FF920F931F938091020161E002
:1002D0000E94CA04809111010E941E05019729F411
:1002E0008091290161E00E94CA04809111010E945D
:1002F0001E05892B29F48091290160E00E94CA041F
:1003000080911E010E94820400D000D0AA2797FD90
:10031000A095BA2F20ED37E040E050E0EDB7FEB7F2
:100320002183328343835483BC01CD0120E030E03C
:1003300040E050E0E12CF4E0FF2E012D112DAA2425
:10034000BB2465010E946D050F900F900F900F90D8
:100350000E94CD038091020160E00E94CA04809156
:1003600011010E941E05019729F48091290161E085
:100370000E94CA04809111010E941E05892B29F454
:100380008091290160E00E94CA0480911E010E94B0
:10039000820400D000D0AA2797FDA095BA2F20EDA7
:1003A00037E040E050E0EDB7FEB72183328343836E
:1003B0005483BC01CD0120E030E040E050E0E12C6E
:1003C000E4E0FE2E012D112DAA24BB2465010E941C
:1003D0006D050F900F900F900F900E94CD031F910D
:1003E0000F91FF90EF90DF90CF90BF90AF90089566
:1003F000FC01758364836115710521F0623071051C
:1004000059F405C0808160E00E94CA0408956081AB
:10041000718108960E94C102089510923E0182E007
:1004200091E061E070E00E94F8018FE091E060E00F
:1004300070E00E94F80189E291E061E070E00E94C2
:10044000F8018CE191E060E070E00E94F80108950D
:10045000FC0180913F018C3090F480838F5F80930A
:100460003F01815090E0FC01EE0FFF1FE80FF91FE4
:10047000E05CFE4F88EB9BE09283818308958FEFD1
:1004800080830895CF92DF92EF92FF921F93CF93D4
:10049000DF93EC01162F7A01690188818C3008F016
:1004A00064C0862F61E00E94A404888190E0FC0172
:1004B000EE0FFF1FE80FF91FE05CFE4F1F738081F6
:1004C000807C812B808380E292E08E199F0964E01A
:1004D00070E00E94E805698380E699E08C199D0927
:1004E00064E070E00E94E8056A83A8818A2F6CE0CE
:1004F0000E94DC05682F70E0AB01440F551F460FCA
:10050000571F440F551F440F551F20E030E0C9010D
:10051000840F951FFC01EE0FFF1FE80FF91FE05C31
:10052000FE4F808186FD15C02F5F3F4F2C30310577
:1005300071F724C01092800082E0809381001092B5
:10054000850010928400B19A80916F008260809340
:100550006F008A2F90E0FC01EE0FFF1FE80FF91FDC
:10056000E05CFE4F8081806480838881DF91CF9141
:100570001F91FF90EF90DF90CF900895672BD1F2FD
:10058000E8CF40E252E020E639E00E9442020895BE
:100590001F920F920FB60F9211242F933F934F93F8
:1005A0005F936F937F938F939F93AF93BF93EF93DB
:1005B000FF938091640187FF05C01092850010921F
:1005C00084002BC020916401332727FD3095809152
:1005D0003F0190E02817390704F5809164019927BD
:1005E00087FD9095FC01EE0FFF1FE80FF91FE05CFF
:1005F000FE4F808186FF11C080916401992787FD9D
:100600009095FC01EE0FFF1FE80FF91FE05CFE4F15
:1006100080818F7360E00E94CA04809164018F5FC3
:100620008093640120916401332727FD30958091E8
:100630003F0190E0281739070CF04EC0809164010B
:100640008C300CF049C0209184003091850080915D
:100650006401992787FD9095FC01EE0FFF1FE80FBD
:10066000F91FE05CFE4F81819281280F391F309382
:1006700089002093880080916401992787FD9095D7
:10068000FC01EE0FFF1FE80FF91FE05CFE4F8081B9
:1006900086FF2AC080916401992787FD9095FC010F
:1006A000EE0FFF1FE80FF91FE05CFE4F80818F7394
:1006B00061E00E94CA0418C080E49CE905C08091F2
:1006C000840090918500049690938900809388001F
:1006D0008FEF8093640108C0809184009091850021
:1006E00084549C4948F3EBCFFF91EF91BF91AF91B8
:1006F0009F918F917F916F915F914F913F912F913A
:100700000F900FBE0F901F9018951F920F920FB66B
:100710000F9211242F933F938F939F93AF93BF9387
:100720008091690190916A01A0916B01B0916C0177
:1007300030916D010196A11DB11D232F2D5F2D3725
:1007400020F02D570196A11DB11D20936D018093BE
:10075000690190936A01A0936B01B0936C01809141
:10076000650190916601A0916701B09168010196C1
:10077000A11DB11D8093650190936601A09367014F
:10078000B0936801BF91AF919F918F913F912F914D
:100790000F900FBE0F901F9018956F927F928F92BF
:1007A0009F92AF92BF92CF92DF92EF92FF920F9300
:1007B0001F93CF93DF933B014C013FB7F894809197
:1007C000650190916601A0916701B091680126B51D
:1007D000A89B05C02F3F19F00196A11DB11D3FBF79
:1007E000AA24B82EC92EDA2EA20EB11CC11CD11C0F
:1007F0009501A60160E070E080E090E002E00E94D8
:100800008C00E90131C03FB7F89480916501909167
:100810006601A0916701B091680126B5A89B05C04B
:100820002F3F19F00196A11DB11D3FBFAA24B82E7C
:10083000C92EDA2EA20EB11CC11CD11C9501A60135
:1008400060E070E080E090E002E00E948C00C9016E
:100850008C1B9D0B885E9340B0F208946108710870
:1008600081089108C851DC4F61147104810491041E
:1008700051F6DF91CF911F910F91FF90EF90DF9094
:10088000CF90BF90AF909F908F907F906F90089582
:10089000789484B5826084BD84B5816084BD85B55B
:1008A000826085BD85B5816085BDEEE6F0E0808122
:1008B00081608083E1E8F0E08081826080838081D4
:1008C00081608083E0E8F0E0808181608083E1EBFB
:1008D000F0E0808184608083E0EBF0E080818160E3
:1008E0008083EAE7F0E08081846080838081826099
:1008F0008083808181608083808180688083109282
:10090000C1000895982F8E3008F09E509770809106
:1009100000018295880F880F807C892B80937C0052
:1009200080917A00806480937A0080917A0086FDBD
:10093000FCCF2091780040917900942F80E030E046
:10094000282B392BC9010895482F50E0CA0186563B
:100950009F4FFC0124914A575F4FFA0184918823ED
:10096000C1F0E82FF0E0EE0FFF1FE859FF4FA5910F
:10097000B491662341F49FB7F8948C91209582231B
:100980008C939FBF08959FB7F8948C91822B8C9382
:100990009FBF0895482F50E0CA0182559F4FFC0128
:1009A0002491CA0186569F4FFC0134914A575F4FEC
:1009B000FA019491992309F440C0222331F12330A4
:1009C00021F4809180008F7705C0243031F480912C
:1009D00080008F7D8093800018C0213019F484B589
:1009E0008F7704C0223021F484B58F7D84BD0DC083
:1009F000263021F48091B0008F7705C0273029F48C
:100A00008091B0008F7D8093B000E92FF0E0EE0F71
:100A1000FF1FEE58FF4FA591B491662341F49FB795
:100A2000F8948C91309583238C939FBF08959FB742
:100A3000F8948C91832B8C939FBF0895682F70E05E
:100A4000CB0182559F4FFC012491CB0186569F4FCD
:100A5000FC0144916A577F4FFB019491992319F44B
:100A600020E030E038C0222331F1233021F480919E
:100A700080008F7705C0243031F4809180008F7D15
:100A80008093800018C0213019F484B58F7704C09A
:100A9000223021F484B58F7D84BD0DC0263021F431
:100AA0008091B0008F7705C0273029F48091B00085
:100AB0008F7D8093B000892F90E0880F991F845814
:100AC0009F4FFC01A591B4918C9120E030E08423EC
:100AD00011F021E030E0C90108952F923F924F922A
:100AE0005F926F927F928F929F92AF92BF92CF92BE
:100AF000DF92EF92FF920F931F93DF93CF93CDB7C7
:100B0000DEB73B014C0119012A016D897E898F896D
:100B1000988D6A197B098C099D09621A730A840AE7
:100B2000950AA40193010E94BD05E218F308040987
:100B30001509A80197010E94FB052A0D3B1D4C1DBC
:100B40005D1DB901CA01CF91DF911F910F91FF90F7
:100B5000EF90DF90CF90BF90AF909F908F907F905D
:100B60006F905F904F903F902F9008950E9448049F
:100B70000E940D020E945D01FDCF629FD001739F14
:100B8000F001829FE00DF11D649FE00DF11D929F29
:100B9000F00D839FF00D749FF00D659FF00D992768
:100BA000729FB00DE11DF91F639FB00DE11DF91F8C
:100BB000BD01CF0111240895991B79E004C0991F4C
:100BC000961708F0961B881F7A95C9F780950895A7
:100BD00097FB092E07260AD077FD04D027D006D030
:100BE00000201AF4709561957F4F0895F6F790955F
:100BF00081959F4F089597FB092E05260ED057FD2E
:100C000004D028D00AD0001C38F450954095309577
:100C100021953F4F4F4F5F4F0895F6F79095809580
:100C2000709561957F4F8F4F9F4F0895AA1BBB1BF7
:100C300051E107C0AA1FBB1FA617B70710F0A61BDC
:100C4000B70B881F991F5A95A9F780959095BC01FD
:100C5000CD010895A1E21A2EAA1BBB1BFD010DC0F8
:100C6000AA1FBB1FEE1FFF1FA217B307E407F5075C
:100C700020F0A21BB30BE40BF50B661F771F881F38
:100C8000991F1A9469F760957095809590959B01CE
:100C9000AC01BD01CF010895EE0FFF1F0590F49147
:080CA000E02D0994F894FFCF48
:020CA800010049
:00000001FF
