:100000000C9462000C948A000C948A000C948A0070
:100010000C948A000C948A000C948A000C948A0038
:100020000C948A000C948A000C948A000C948A0028
:100030000C948A000C948A000C948A000C948A0018
:100040000C948C020C948A000C948A000C948A0004
:100050000C948A000C948A000C948A000C948A00F8
:100060000C948A000C948A000000000024002700F1
:100070002A0000000000250028002B0000000000DE
:1000800023002600290004040404040404040202DA
:100090000202020203030303030301020408102007
:1000A0004080010204081020010204081020000012
:1000B0000007000201000003040600000000000029
:1000C00000009E0111241FBECFEFD8E0DEBFCDBFE0
:1000D00011E0A0E0B1E0ECE2F6E002C005900D9284
:1000E000A231B107D9F711E0A2E1B1E001C01D9240
:1000F000A732B107E1F710E0C4ECD0E004C02297CA
:10010000FE010E941003C23CD107C9F70E9485027C
:100110000C9414030C940000CF93DF93BC01823045
:10012000910510F462E070E0A0912501B0912601E4
:10013000ED01E0E0F0E040E050E021C088819981ED
:100140008617970769F48A819B81309719F093830A
:10015000828304C09093260180932501FE0134C060
:100160006817790738F44115510519F08417950778
:1001700008F4AC01FE018A819B819C01E901209772
:10018000E9F641155105A9F1CA01861B970B0497A1
:1001900008F4BA01E0E0F0E02AC08D919C9111973B
:1001A00084179507F9F46417750781F412968D91F9
:1001B0009C911397309719F09383828304C0909396
:1001C000260180932501FD0132964CC0CA01861B91
:1001D000970BFD01E80FF91F6193719302978D93BF
:1001E0009C9340C0FD01828193819C01D9011097AD
:1001F000A1F68091230190912401892B41F48091F3
:100200000D0190910E019093240180932301409160
:100210000F01509110014115510541F44DB75EB7E2
:1002200080910B0190910C01481B590B20912301E7
:1002300030912401CA01821B930B8617970780F027
:10024000AB014E5F5F4F8417950750F0420F531F6D
:100250005093240140932301F9016193719302C0EB
:10026000E0E0F0E0CF01DF91CF910895CF93DF93ED
:10027000009709F450C0EC0122971B821A82A091CA
:100280002501B0912601109709F140E050E0AC172C
:10029000BD0708F1BB83AA83FE0121913191E20FD2
:1002A000F31FAE17BF0779F48D919C911197280F1A
:1002B000391F2E5F3F4F3983288312968D919C9171
:1002C00013979B838A834115510571F4D0932601BE
:1002D000C093250120C012968D919C911397AD017A
:1002E000009711F0DC01D3CFFA01D383C2832191AF
:1002F0003191E20FF31FCE17DF0769F488819981EE
:10030000280F391F2E5F3F4FFA01318320838A81E6
:100310009B8193838283DF91CF910895FB01DC0160
:100320008D91019080190110D9F3990B0895FB016B
:10033000DC0101900D920020E1F708951092140164
:10034000109213018DE090E09093160180931501B7
:100350000895BF92CF92DF92EF92FF920F931F9377
:10036000DF93CF93CDB7DEB72C970FB6F894DEBFEF
:100370000FBECDBF80911901882391F57E010894AD
:10038000E11CF11C8E01095F1F4FBB24B39488EE62
:10039000C82E83E0D82EC70160E071E00E945D02A4
:1003A000C80165E071E00E945D02C701B8010E94CA
:1003B00030028F8198850E943601D0921801C09238
:1003C0001701B092120189819A811C861B861A86B8
:1003D00019860E9436011C821B821E821D82DBCF81
:1003E0002C960FB6F894DEBF0FBECDBFCF91DF9134
:1003F0001F910F91FF90EF90DF90CF90BF900895E5
:10040000109219018091150161E00E940A02109278
:1004100012010895482F50E0CA0186569F4FFC01F3
:1004200024914A575F4FFA0184918823C1F0E82F45
:10043000F0E0EE0FFF1FE859FF4FA591B49166233E
:1004400041F49FB7F8948C91209582238C939FBFA1
:1004500008959FB7F8948C91822B8C939FBF089539
:10046000DC01FB0114962D913C91159784819581B7
:100470002817390711F080E00895608171818D910E
:100480009C910E948E019C0180E0232B09F481E065
:100490000895CF93DF93EC01CB017B836A830196B0
:1004A0000E948C0099838883009721F41B821A8212
:1004B0001D821C82DF91CF9108950F931F93CF93DC
:1004C000DF938C01EB016115710511F4CAE0D1E0F5
:1004D000FE0101900020E9F73197EC1BFD0BD801DC
:1004E0001596FC93EE931497C801BF010E94490230
:1004F000F80180819181009719F0BE010E94970157
:10050000DF91CF911F910F9108950E94D4020E9414
:1005100000020E94A901FDCF1F920F920FB60F9209
:1005200011242F933F938F939F93AF93BF93809109
:100530001E0190911F01A0912001B09121013091E5
:1005400022010196A11DB11D232F2D5F2D3720F013
:100550002D570196A11DB11D2093220180931E01EC
:1005600090931F01A0932001B093210180911A0163
:1005700090911B01A0911C01B0911D010196A11D3C
:10058000B11D80931A0190931B01A0931C01B0939D
:100590001D01BF91AF919F918F913F912F910F902E
:1005A0000FBE0F901F901895789484B5826084BD1B
:1005B00084B5816084BD85B5826085BD85B5816067
:1005C00085BDEEE6F0E0808181608083E1E8F0E0C7
:1005D000808182608083808181608083E0E8F0E0B8
:1005E000808181608083E1EBF0E0808184608083A2
:1005F000E0EBF0E0808181608083EAE7F0E08081D9
:100600008460808380818260808380818160808338
:100610008081806880831092C1000895EE0FFF1FD3
:0C0620000590F491E02D0994F894FFCFB0
:10062C00534C4F5700464153540000200027010003
:02063C000000BC
:00000001FF
