:100000000C9462000C948A000C948A000C948A0070
:100010000C948A000C948A000C948A000C948A0038
:100020000C948A000C948A000C948A000C943A0276
:100030000C948A000C948A000C948A000C948A0018
:100040000C94F7020C948A000C948A000C948A0099
:100050000C948A000C948A000C948A000C948A00F8
:100060000C948A000C948A000000000024002700F1
:100070002A0000000000250028002B0000000000DE
:1000800023002600290004040404040404040202DA
:100090000202020203030303030301020408102007
:1000A0004080010204081020010204081020000012
:1000B0000007000201000003040600000000000029
:1000C00000002C0111241FBECFEFD8E0DEBFCDBF52
:1000D00011E0A0E0B1E0EEEFF9E002C005900D9272
:1000E000A030B107D9F711E0A0E0B1E001C01D9246
:1000F000AC35B107E1F710E0C4ECD0E004C02297C2
:10010000FE010E94F904C23CD107C9F70E94BD0458
:100110000C94FD040C940000EF92FF920F93DF9378
:10012000CF93CDB7DEB760970FB6F894DEBF0FBEA2
:10013000CDBFA82F002309F461C07E010894E11C03
:10014000F11C88E0F70111928A95E9F729833A8337
:100150004B835C836D837E83AF83988780E2801BB3
:10016000E82FFF27E7FDF09549815A816B817C815B
:10017000181684F019861A861B861C8688279927EC
:100180008E1B9F0B04C0440F551F661F771F8A9557
:10019000D2F728C0202F332727FD3095DB01CA0175
:1001A000022E04C0880F991FAA1FBB1F0A94D2F702
:1001B00089879A87AB87BC8704C0769567955795E2
:1001C0004795EA95D2F78D819E81AF81B88504C0AD
:1001D000880F991FAA1FBB1F2A95D2F7482B592BAE
:1001E0006A2B7B2B4D875E876F87788B29853A85B5
:1001F0004B855C856D857E85AF8598898A2F609655
:100200000FB6F894DEBF0FBECDBFCF91DF910F9137
:10021000FF90EF900895CF92DF92EF92FF920F93AD
:100220001F938C016B017A0108960E949A01F801D4
:10023000C082D182F382E2828C2D61E00E94F403BD
:10024000F801828160E00E94F4031F910F91FF90FA
:10025000EF90DF90CF90089580E091E063E070E050
:100260004EE050E00E940B018BE091E065E070E011
:100270004FE050E00E940B0186E191E066E070E003
:1002800040E150E00E940B0181E291E06BE070E000
:1002900041E150E00E940B01089580912C018823D8
:1002A00021F5809123010E946E0420912701309155
:1002B00028018217930799F0809123010E946E0410
:1002C00090932801809327018091160161E00E949C
:1002D0001A0464EF71E080E090E00E943F03809197
:1002E000160160E00E941A04DCCF0895FC017583BA
:1002F00064836115710521F06230710559F405C000
:10030000808160E00E941A040895608171810896DE
:100310000E943302089510922C0181E291E060E086
:1003200070E00E94760186E191E061E070E00E9459
:1003300076010895FC0180912D018C3090F480832A
:100340008F5F80932D01815090E0FC01EE0FFF1F25
:10035000E80FF91FE25DFE4F88EB9BE092838183FB
:1003600008958FEF80830895CF92DF92EF92FF92EE
:100370001F93CF93DF93EC01162F7A0169018881D7
:100380008C3008F064C0862F61E00E94F4038881FD
:1003900090E0FC01EE0FFF1FE80FF91FE25DFE4F3A
:1003A0001F738081807C812B808380E292E08E1994
:1003B0009F0964E070E00E94D004698380E699E0C0
:1003C0008C199D0964E070E00E94D0046A83A881C2
:1003D0008A2F6CE00E94C404682F70E0AB01440FC8
:1003E000551F460F571F440F551F440F551F20E040
:1003F00030E0C901840F951FFC01EE0FFF1FE80FCD
:10040000F91FE25DFE4F808186FD15C02F5F3F4FD3
:100410002C30310571F724C01092800082E0809367
:1004200081001092850010928400B19A80916F0033
:10043000826080936F008A2F90E0FC01EE0FFF1F17
:10044000E80FF91FE25DFE4F808180648083888120
:10045000DF91CF911F91FF90EF90DF90CF900895A3
:10046000672BD1F2E8CF40E252E020E639E00E946B
:10047000B40108951F920F920FB60F9211242F937B
:100480003F934F935F936F937F938F939F93AF931C
:10049000BF93EF93FF938091520187FF05C01092A5
:1004A0008500109284002BC020915201332727FD34
:1004B000309580912D0190E02817390704F580913F
:1004C0005201992787FD9095FC01EE0FFF1FE80F61
:1004D000F91FE25DFE4F808186FF11C080915201BD
:1004E000992787FD9095FC01EE0FFF1FE80FF91F7C
:1004F000E25DFE4F80818F7360E00E941A0480915C
:1005000052018F5F8093520120915201332727FDC2
:10051000309580912D0190E0281739070CF04EC0DE
:10052000809152018C300CF049C0209184003091B0
:10053000850080915201992787FD9095FC01EE0F6F
:10054000FF1FE80FF91FE25DFE4F81819281280FA6
:10055000391F309389002093880080915201992798
:1005600087FD9095FC01EE0FFF1FE80FF91FE25D7C
:10057000FE4F808186FF2AC080915201992787FD16
:100580009095FC01EE0FFF1FE80FF91FE25DFE4F93
:1005900080818F7361E00E941A0418C080E49CE996
:1005A00005C0809184009091850004969093890005
:1005B000809388008FEF8093520108C0809184005F
:1005C0009091850084549C4948F3EBCFFF91EF91C3
:1005D000BF91AF919F918F917F916F915F914F915B
:1005E0003F912F910F900FBE0F901F9018951F9263
:1005F0000F920FB60F9211242F933F938F939F93D7
:10060000AF93BF938091570190915801A0915901E8
:10061000B0915A0130915B010196A11DB11D232FAC
:100620002D5F2D3720F02D570196A11DB11D209370
:100630005B018093570190935801A0935901B093A7
:100640005A018091530190915401A0915501B091AC
:1006500056010196A11DB11D809353019093540141
:10066000A0935501B0935601BF91AF919F918F9187
:100670003F912F910F900FBE0F901F9018956F9282
:100680007F928F929F92AF92BF92CF92DF92EF9222
:10069000FF920F931F93CF93DF933B014C013FB722
:1006A000F8948091530190915401A0915501B0911B
:1006B000560126B5A89B05C02F3F19F00196A11D34
:1006C000B11D3FBFAA24B82EC92EDA2EA20EB11C2E
:1006D000C11CD11C9501A60160E070E080E090E0B3
:1006E00002E00E948C00E90131C03FB7F89480918C
:1006F000530190915401A0915501B091560126B536
:10070000A89B05C02F3F19F00196A11DB11D3FBF49
:10071000AA24B82EC92EDA2EA20EB11CC11CD11CDF
:100720009501A60160E070E080E090E002E00E94A8
:100730008C00C9018C1B9D0B885E9340B0F208941D
:100740006108710881089108C851DC4F6114710477
:100750008104910451F6DF91CF911F910F91FF9089
:10076000EF90DF90CF90BF90AF909F908F907F9051
:100770006F900895789484B5826084BD84B581605B
:1007800084BD85B5826085BD85B5816085BDEEE699
:10079000F0E0808181608083E1E8F0E08081826028
:1007A0008083808181608083E0E8F0E080818160E7
:1007B0008083E1EBF0E0808184608083E0EBF0E017
:1007C000808181608083EAE7F0E0808184608083BB
:1007D0008081826080838081816080838081806865
:1007E00080831092C1000895482F50E0CA018656B8
:1007F0009F4FFC0124914A575F4FFA01849188234F
:10080000C1F0E82FF0E0EE0FFF1FE859FF4FA59170
:10081000B491662341F49FB7F8948C91209582237C
:100820008C939FBF08959FB7F8948C91822B8C93E3
:100830009FBF0895482F50E0CA0182559F4FFC0189
:100840002491CA0186569F4FFC0134914A575F4F4D
:10085000FA019491992309F440C0222331F1233005
:1008600021F4809180008F7705C0243031F480918D
:1008700080008F7D8093800018C0213019F484B5EA
:100880008F7704C0223021F484B58F7D84BD0DC0E4
:10089000263021F48091B0008F7705C0273029F4ED
:1008A0008091B0008F7D8093B000E92FF0E0EE0FD3
:1008B000FF1FEE58FF4FA591B491662341F49FB7F7
:1008C000F8948C91309583238C939FBF08959FB7A4
:1008D000F8948C91832B8C939FBF0895682F70E0C0
:1008E000CB0182559F4FFC012491CB0186569F4F2F
:1008F000FC0144916A577F4FFB019491992319F4AD
:1009000020E030E038C0222331F1233021F48091FF
:1009100080008F7705C0243031F4809180008F7D76
:100920008093800018C0213019F484B58F7704C0FB
:10093000223021F484B58F7D84BD0DC0263021F492
:100940008091B0008F7705C0273029F48091B000E6
:100950008F7D8093B000892F90E0880F991F845875
:100960009F4FFC01A591B4918C9120E030E084234D
:1009700011F021E030E0C90108950E94BA030E94FD
:100980008B010E944D01FDCF991B79E004C0991F96
:10099000961708F0961B881F7A95C9F780950895D9
:1009A00097FB092E07260AD077FD04D00CD006D07D
:1009B00000201AF4709561957F4F0895F6F7909591
:1009C00081959F4F0895AA1BBB1B51E107C0AA1F29
:1009D000BB1FA617B70710F0A61BB70B881F991FE0
:1009E0005A95A9F780959095BC01CD010895EE0F19
:0E09F000FF1F0590F491E02D0994F894FFCFBD
:00000001FF
