:100000000C9462000C948A000C948A000C948A0070
:100010000C948A000C948A000C948A000C948A0038
:100020000C948A000C948A000C948A000C94FE00B4
:100030000C948A000C948A000C948A000C948A0018
:100040000C943C020C948A000C948A000C948A0054
:100050000C948A000C948A000C948A000C948A00F8
:100060000C948A000C948A000000000024002700F1
:100070002A0000000000250028002B0000000000DE
:1000800023002600290004040404040404040202DA
:100090000202020203030303030301020408102007
:1000A0004080010204081020010204081020000012
:1000B0000007000201000003040600000000000029
:1000C0000000AD0011241FBECFEFD8E0DEBFCDBFD2
:1000D00011E0A0E0B1E0ECE8F5E002C005900D927F
:1000E000A030B107D9F711E0A0E0B1E001C01D9246
:1000F000AC35B107E1F710E0C4ECD0E004C02297C2
:10010000FE010E94C002C23CD107C9F70E9435021D
:100110000C94C4020C940000CF92DF92EF92FF92F5
:100120000F931F938C016B017A0108960E94E400E3
:10013000F801C082D182F382E2828C2D61E00E94BC
:10014000BB01F801828160E00E94BB011F910F9109
:10015000FF90EF90DF90CF90089580E091E063E012
:1001600070E04EE050E00E948C008BE091E065E092
:1001700070E04FE050E00E948C0086E191E066E084
:1001800070E040E150E00E948C0081E291E06BE081
:1001900070E041E150E00E948C00089580912C01B4
:1001A000882341F48091160161E00E94E10181E021
:1001B00080932C01089510922C0181E090E090939F
:1001C0001B0180931A010895FC0180912D018C3050
:1001D00090F480838F5F80932D01815090E0FC012B
:1001E000EE0FFF1FE80FF91FE25DFE4F88EB9BE06B
:1001F0009283818308958FEF808308951F920F92D9
:100200000FB60F9211242F933F934F935F936F93E9
:100210007F938F939F93AF93BF93EF93FF938091BF
:10022000520187FF05C010928500109284002BC0F8
:1002300020915201332727FD309580912D0190E0C8
:100240002817390704F580915201992787FD909569
:10025000FC01EE0FFF1FE80FF91FE25DFE4F8081EA
:1002600086FF11C080915201992787FD9095FC016E
:10027000EE0FFF1FE80FF91FE25DFE4F80818F73C5
:1002800060E00E94E101809152018F5F80935201F2
:1002900020915201332727FD309580912D0190E068
:1002A000281739070CF04EC0809152018C300CF0A9
:1002B00049C0209184003091850080915201992796
:1002C00087FD9095FC01EE0FFF1FE80FF91FE25D1F
:1002D000FE4F81819281280F391F3093890020932E
:1002E000880080915201992787FD9095FC01EE0FBF
:1002F000FF1FE80FF91FE25DFE4F808186FF2AC0D5
:1003000080915201992787FD9095FC01EE0FFF1F08
:10031000E80FF91FE25DFE4F80818F7361E00E945C
:10032000E10118C080E49CE905C0809184009091AF
:100330008500049690938900809388008FEF8093C6
:10034000520108C0809184009091850084549C499A
:1003500048F3EBCFFF91EF91BF91AF919F918F91B8
:100360007F916F915F914F913F912F910F900FBEB1
:100370000F901F901895482F50E0CA0186569F4F46
:10038000FC0124914A575F4FFA0184918823C1F000
:10039000E82FF0E0EE0FFF1FE859FF4FA591B49151
:1003A000662341F49FB7F8948C91209582238C9317
:1003B0009FBF08959FB7F8948C91822B8C939FBF19
:1003C0000895482F50E0CA0182559F4FFC012491A7
:1003D000CA0186569F4FFC0134914A575F4FFA017C
:1003E0009491992309F440C0222331F1233021F460
:1003F000809180008F7705C0243031F48091800097
:100400008F7D8093800018C0213019F484B58F77D8
:1004100004C0223021F484B58F7D84BD0DC0263008
:1004200021F48091B0008F7705C0273029F48091A6
:10043000B0008F7D8093B000E92FF0E0EE0FFF1F3A
:10044000EE58FF4FA591B491662341F49FB7F894FD
:100450008C91309583238C939FBF08959FB7F89418
:100460008C91832B8C939FBF08950E9484020E94DD
:10047000DB000E94CE00FDCF1F920F920FB60F92AD
:1004800011242F933F938F939F93AF93BF938091AA
:10049000570190915801A0915901B0915A013091A2
:1004A0005B010196A11DB11D232F2D5F2D3720F07B
:1004B0002D570196A11DB11D20935B01809357011B
:1004C00090935801A0935901B0935A018091530120
:1004D00090915401A0915501B09156010196A11D32
:1004E000B11D8093530190935401A0935501B09393
:1004F0005601BF91AF919F918F913F912F910F9096
:100500000FBE0F901F901895789484B5826084BDBB
:1005100084B5816084BD85B5826085BD85B5816007
:1005200085BDEEE6F0E0808181608083E1E8F0E067
:10053000808182608083808181608083E0E8F0E058
:10054000808181608083E1EBF0E080818460808342
:10055000E0EBF0E0808181608083EAE7F0E0808179
:1005600084608083808182608083808181608083D9
:100570008081806880831092C1000895EE0FFF1F74
:0C0580000590F491E02D0994F894FFCF51
:00000001FF
