:100000000C9462000C948A000C948A000C948A0070
:100010000C948A000C948A000C948A000C948A0038
:100020000C948A000C948A000C948A000C94A10110
:100030000C948A000C948A000C948A000C948A0018
:100040000C945E020C948A000C948A000C948A0032
:100050000C948A000C948A000C948A000C948A00F8
:100060000C948A000C948A000000000024002700F1
:100070002A0000000000250028002B0000000000DE
:1000800023002600290004040404040404040202DA
:100090000202020203030303030301020408102007
:1000A0004080010204081020010204081020000012
:1000B0000007000201000003040600000000000029
:1000C00000002C0111241FBECFEFD8E0DEBFCDBF52
:1000D00011E0A0E0B1E0EAE7F8E002C005900D927F
:1000E000A030B107D9F711E0A0E0B1E001C01D9246
:1000F000AC35B107E1F710E0C4ECD0E004C02297C2
:10010000FE010E943704C23CD107C9F70E942E04A9
:100110000C943B040C940000EF92FF920F93DF933A
:10012000CF93CDB7DEB760970FB6F894DEBF0FBEA2
:10013000CDBFA82F002309F461C07E010894E11C03
:10014000F11C88E0F70111928A95E9F729833A8337
:100150004B835C836D837E83AF83988780E2801BB3
:10016000E82FFF27E7FDF09549815A816B817C815B
:10017000181684F019861A861B861C8688279927EC
:100180008E1B9F0B04C0440F551F661F771F8A9557
:10019000D2F728C0202F332727FD3095DB01CA0175
:1001A000022E04C0880F991FAA1FBB1F0A94D2F702
:1001B00089879A87AB87BC8704C0769567955795E2
:1001C0004795EA95D2F78D819E81AF81B88504C0AD
:1001D000880F991FAA1FBB1F2A95D2F7482B592BAE
:1001E0006A2B7B2B4D875E876F87788B29853A85B5
:1001F0004B855C856D857E85AF8598898A2F609655
:100200000FB6F894DEBF0FBECDBFCF91DF910F9137
:10021000FF90EF900895CF92DF92EF92FF920F93AD
:100220001F938C016B017A0108960E948701F801E7
:10023000C082D182F382E2828C2D61E00E94B403FD
:10024000F801828160E00E94B4031F910F91FF903A
:10025000EF90DF90CF90089580E091E063E070E050
:100260004EE050E00E940B018BE091E065E070E011
:100270004FE050E00E940B0186E191E066E070E003
:1002800040E150E00E940B0181E291E06BE070E000
:1002900041E150E00E940B010895809100016CE45F
:1002A00070E00E945B0368EE73E080E090E00E94E3
:1002B000A602809100016FE770E00E945B0368EE88
:1002C00073E080E090E00E94A602809100016FEF51
:1002D00070E00E945B0368EE73E080E090E00E94B3
:1002E000A6028091000160E070E00E945B0368EE6E
:1002F00073E080E090E00E94A602089510922C0125
:1003000081E090E090930501809304010895FC0141
:1003100080912D018C3090F480838F5F80932D012C
:10032000815090E0FC01EE0FFF1FE80FF91FE25D26
:10033000FE4F88EB9BE09283818308958FEF80834B
:1003400008951F920F920FB60F9211242F933F938F
:100350004F935F936F937F938F939F93AF93BF93CD
:10036000EF93FF938091520187FF05C010928500A3
:10037000109284002BC020915201332727FD309525
:1003800080912D0190E02817390704F580915201E2
:10039000992787FD9095FC01EE0FFF1FE80FF91FCD
:1003A000E25DFE4F808186FF11C080915201992746
:1003B00087FD9095FC01EE0FFF1FE80FF91FE25D2E
:1003C000FE4F80818F7360E00E94DA0380915201BA
:1003D0008F5F8093520120915201332727FD309582
:1003E00080912D0190E0281739070CF04EC08091C4
:1003F00052018C300CF049C020918400309185006E
:1004000080915201992787FD9095FC01EE0FFF1F07
:10041000E80FF91FE25DFE4F81819281280F391F9D
:10042000309389002093880080915201992787FD9D
:100430009095FC01EE0FFF1FE80FF91FE25DFE4FE4
:10044000808186FF2AC080915201992787FD90956F
:10045000FC01EE0FFF1FE80FF91FE25DFE4F8081E8
:100460008F7361E00E94DA0318C080E49CE905C044
:1004700080918400909185000496909389008093E8
:1004800088008FEF8093520108C080918400909182
:10049000850084549C4948F3EBCFFF91EF91BF91C5
:1004A000AF919F918F917F916F915F914F913F910C
:1004B0002F910F900FBE0F901F9018951F920F92C3
:1004C0000FB60F9211242F933F938F939F93AF9367
:1004D000BF938091570190915801A0915901B0911B
:1004E0005A0130915B010196A11DB11D232F2D5F93
:1004F0002D3720F02D570196A11DB11D20935B01D2
:100500008093570190935801A0935901B0935A01D9
:100510008091530190915401A0915501B0915601E1
:100520000196A11DB11D8093530190935401A09396
:100530005501B0935601BF91AF919F918F913F911B
:100540002F910F900FBE0F901F9018956F927F9272
:100550008F929F92AF92BF92CF92DF92EF92FF92D3
:100560000F931F93CF93DF933B014C013FB7F89458
:100570008091530190915401A0915501B091560181
:1005800026B5A89B05C02F3F19F00196A11DB11DEE
:100590003FBFAA24B82EC92EDA2EA20EB11CC11C50
:1005A000D11C9501A60160E070E080E090E002E0DF
:1005B0000E948C00E90131C03FB7F894809153014B
:1005C00090915401A0915501B091560126B5A89B78
:1005D00005C02F3F19F00196A11DB11D3FBFAA24F0
:1005E000B82EC92EDA2EA20EB11CC11CD11C950149
:1005F000A60160E070E080E090E002E00E948C00E4
:10060000C9018C1B9D0B885E9340B0F20894610871
:10061000710881089108C851DC4F6114710481048C
:10062000910451F6DF91CF911F910F91FF90EF90C0
:10063000DF90CF90BF90AF909F908F907F906F9002
:100640000895789484B5826084BD84B5816084BD4A
:1006500085B5826085BD85B5816085BDEEE6F0E03B
:10066000808181608083E1E8F0E080818260808326
:10067000808181608083E0E8F0E080818160808318
:10068000E1EBF0E0808184608083E0EBF0E080814A
:1006900081608083EAE7F0E08081846080838081EC
:1006A0008260808380818160808380818068808394
:1006B0001092C10008951F93CF93DF93182FEB0181
:1006C00061E00E94B403E12FF0E0E255FF4F849116
:1006D000833051F480918000806880938000D093B3
:1006E0008900C09388003CC0843051F48091800020
:1006F000806280938000D0938B00C0938A0030C0CA
:10070000813039F4209729F184B5806884BDC7BD54
:1007100027C0823039F42097E1F084B5806284BD2F
:10072000C8BD1EC0863041F48091B00080688093BF
:10073000B000C093B30014C0873041F48091B00082
:1007400080628093B000C093B4000AC0C038D10565
:100750001CF4812F60E002C0812F61E00E94DA0367
:10076000DF91CF911F910895482F50E0CA0186561E
:100770009F4FFC0124914A575F4FFA0184918823CF
:10078000C1F0E82FF0E0EE0FFF1FE859FF4FA591F1
:10079000B491662341F49FB7F8948C9120958223FD
:1007A0008C939FBF08959FB7F8948C91822B8C9364
:1007B0009FBF0895482F50E0CA0182559F4FFC010A
:1007C0002491CA0186569F4FFC0134914A575F4FCE
:1007D000FA019491992309F440C0222331F1233086
:1007E00021F4809180008F7705C0243031F480910E
:1007F00080008F7D8093800018C0213019F484B56B
:100800008F7704C0223021F484B58F7D84BD0DC064
:10081000263021F48091B0008F7705C0273029F46D
:100820008091B0008F7D8093B000E92FF0E0EE0F53
:10083000FF1FEE58FF4FA591B491662341F49FB777
:10084000F8948C91309583238C939FBF08959FB724
:10085000F8948C91832B8C939FBF08950E94210361
:100860000E947E010E944D01FDCFEE0FFF1F0590FB
:0A087000F491E02D0994F894FFCFF5
:00000001FF
