:100000000C9462000C948A000C948A000C948A0070
:100010000C948A000C948A000C948A000C948A0038
:100020000C948A000C948A000C948A000C940803A7
:100030000C948A000C948A000C948A000C948A0018
:100040000C94B1040C948A000C948A000C948A00DD
:100050000C948A000C948A000C948A000C948A00F8
:100060000C948A000C948A000000000024002700F1
:100070002A0000000000250028002B0000000000DE
:1000800023002600290004040404040404040202DA
:100090000202020203030303030301020408102007
:1000A0004080010204081020010204081020000012
:1000B0000007000201000003040600000000000029
:1000C00000002C0111241FBECFEFD8E0DEBFCDBF52
:1000D00011E0A0E0B1E0E4E9FBE002C005900D9280
:1000E000A230B107D9F711E0A2E0B1E001C01D9242
:1000F000AE35B107E1F710E0C4ECD0E004C02297C0
:10010000FE010E94C405C23CD107C9F70E94AA049F
:100110000C94C8050C940000EF92FF920F93DF93AC
:10012000CF93CDB7DEB760970FB6F894DEBF0FBEA2
:10013000CDBFA82F002309F461C07E010894E11C03
:10014000F11C88E0F70111928A95E9F729833A8337
:100150004B835C836D837E83AF83988780E2801BB3
:10016000E82FFF27E7FDF09549815A816B817C815B
:10017000181684F019861A861B861C8688279927EC
:100180008E1B9F0B04C0440F551F661F771F8A9557
:10019000D2F728C0202F332727FD3095DB01CA0175
:1001A000022E04C0880F991FAA1FBB1F0A94D2F702
:1001B00089879A87AB87BC8704C0769567955795E2
:1001C0004795EA95D2F78D819E81AF81B88504C0AD
:1001D000880F991FAA1FBB1F2A95D2F7482B592BAE
:1001E0006A2B7B2B4D875E876F87788B29853A85B5
:1001F0004B855C856D857E85AF8598898A2F609655
:100200000FB6F894DEBF0FBECDBFCF91DF910F9137
:10021000FF90EF900895CF92DF92EF92FF920F93AD
:100220001F938C016B017A0108960E94B801F801B6
:10023000C082D182F382E2828C2D61E00E94E703CA
:10024000F801828160E00E94E7031F910F91FF9007
:10025000EF90DF90CF90089582E091E063E070E04E
:100260004EE050E00E940B018DE091E065E070E00F
:100270004FE050E00E940B0188E191E066E070E001
:1002800040E150E00E940B0183E291E06BE070E0FE
:1002900041E150E00E940B010895AF92BF92CF92CE
:1002A000DF92EF92FF920F931F9380912E0188238C
:1002B00091F5809125010E94C50300D000D0AA27A6
:1002C00097FDA095BA2F24EB30E040E050E0EDB769
:1002D000FEB72183328343835483BC01CD0120E0E8
:1002E00030E040E050E0E12CE4E0FE2E012D112D45
:1002F000AA24BB2465010E9461049B01AC010F90FC
:100300000F900F900F9085E191E0B9010E941A02C1
:1003100081E080932E011F910F91FF90EF90DF906D
:10032000CF90BF90AF900895FC01758364836115F1
:10033000710521F06230710559F405C0808160E0DB
:100340000E940D0408956081718108960E94010346
:10035000089510922E018DE091E062E070E00E941D
:10036000940183E291E060E070E00E9494010895BE
:10037000FC0180912F018C3090F480838F5F8093FB
:100380002F01815090E0FC01EE0FFF1FE80FF91FD5
:10039000E05DFE4F88EB9BE09283818308958FEFB1
:1003A000808308950F931F93FC0110811C3008F087
:1003B0003EC08181992787FD909528E830E0281B71
:1003C000390B220F331F220F331F6217730784F07C
:1003D0008281992787FD909528E532E0281B390B0B
:1003E000220F331F220F331F621773070CF49B0178
:1003F000C9010297FC01FF0FEE0BFE2F9C014E2F4F
:100400005E2F6E2F7E2F8E2F9E2F01E00E948C007C
:100410004FB7F894812F90E0FC01EE0FFF1FE80F1B
:10042000F91FE05DFE4FC901218392834FBF1F91E9
:100430000F910895AF92BF92CF92DF92EF92FF9209
:100440000F931F93CF93DF93EC019B0182E0603207
:1004500078070CF048C077FF03C020E030E005C00B
:10046000653B710514F024EB30E000D000D0B901F9
:10047000882777FD8095982F2981332727FD309590
:10048000E8E8AE2EB12CA21AB30AAA0CBB1CAA0C27
:10049000BB1CCC24B7FCC094DC2CEA81FF27E7FD11
:1004A000F09528E532E02E1B3F0B220F331F220F61
:1004B000331F442737FD4095542FEDB7FEB72183F6
:1004C00032834383548320E030E040E050E004EB8B
:1004D000E02EF12C012D112D0E9461049B010F9043
:1004E0000F900F900F90CE01B9010E94D201DF91C1
:1004F000CF911F910F91FF90EF90DF90CF90BF9021
:10050000AF900895CF92DF92EF92FF921F93CF9317
:10051000DF93EC01162F7A01690188818C3008F095
:1005200064C0862F61E00E94E703888190E0FC01AF
:10053000EE0FFF1FE80FF91FE05DFE4F1F73808174
:10054000807C812B808380E292E08E199F0964E099
:1005500070E00E945E05698380E699E08C199D0930
:1005600064E070E00E945E056A83A8818A2F6CE0D7
:100570000E945205682F70E0AB01440F551F460FD3
:10058000571F440F551F440F551F20E030E0C9018D
:10059000840F951FFC01EE0FFF1FE80FF91FE05DB0
:1005A000FE4F808186FD15C02F5F3F4F2C303105F7
:1005B00071F724C01092800082E080938100109235
:1005C000850010928400B19A80916F0082608093C0
:1005D0006F008A2F90E0FC01EE0FFF1FE80FF91F5C
:1005E000E05DFE4F8081806480838881DF91CF91C0
:1005F0001F91FF90EF90DF90CF900895672BD1F27D
:10060000E8CF40E252E020E639E00E9482020895FD
:100610001F920F920FB60F9211242F933F934F9377
:100620005F936F937F938F939F93AF93BF93EF935A
:10063000FF938091540187FF05C0109285001092AE
:1006400084002BC020915401332727FD30958091E1
:100650002F0190E02817390704F58091540199275C
:1006600087FD9095FC01EE0FFF1FE80FF91FE05D7D
:10067000FE4F808186FF11C080915401992787FD2C
:100680009095FC01EE0FFF1FE80FF91FE05DFE4F94
:1006900080818F7360E00E940D04809154018F5F10
:1006A0008093540120915401332727FD3095809188
:1006B0002F0190E0281739070CF04EC080915401AB
:1006C0008C300CF049C020918400309185008091DD
:1006D0005401992787FD9095FC01EE0FFF1FE80F4D
:1006E000F91FE05DFE4F81819281280F391F309301
:1006F00089002093880080915401992787FD909567
:10070000FC01EE0FFF1FE80FF91FE05DFE4F808137
:1007100086FF2AC080915401992787FD9095FC019E
:10072000EE0FFF1FE80FF91FE05DFE4F80818F7312
:1007300061E00E940D0418C080E49CE905C080912E
:10074000840090918500049690938900809388009E
:100750008FEF8093540108C08091840090918500B0
:1007600084549C4948F3EBCFFF91EF91BF91AF9137
:100770009F918F917F916F915F914F913F912F91B9
:100780000F900FBE0F901F901895982F8E3008F085
:100790009E509770809100018295880F880F807C11
:1007A000892B80937C0080917A00806480937A000A
:1007B00080917A0086FDFCCF2091780040917900ED
:1007C000942F80E030E0282B392BC9010895482F61
:1007D00050E0CA0186569F4FFC0124914A575F4F53
:1007E000FA0184918823C1F0E82FF0E0EE0FFF1F9B
:1007F000E859FF4FA591B491662341F49FB7F8944F
:100800008C91209582238C939FBF08959FB7F89475
:100810008C91822B8C939FBF0895482F50E0CA0182
:1008200082559F4FFC012491CA0186569F4FFC01BF
:1008300034914A575F4FFA019491992309F440C0CB
:10084000222331F1233021F4809180008F7705C07D
:10085000243031F4809180008F7D8093800018C017
:10086000213019F484B58F7704C0223021F484B587
:100870008F7D84BD0DC0263021F48091B0008F772C
:1008800005C0273029F48091B0008F7D8093B0009F
:10089000E92FF0E0EE0FFF1FEE58FF4FA591B49146
:1008A000662341F49FB7F8948C91309583238C9301
:1008B0009FBF08959FB7F8948C91832B8C939FBF13
:1008C00008952F923F924F925F926F927F928F92F4
:1008D0009F92AF92BF92CF92DF92EF92FF920F93CF
:1008E0001F93DF93CF93CDB7DEB73B014C011901C6
:1008F0002A016D897E898F89988D6A197B098C09F7
:100900009D09621A730A840A950AA40193010E9440
:100910003305E218F30804091509A80197010E949C
:1009200071052A0D3B1D4C1D5D1DB901CA01CF91FA
:10093000DF911F910F91FF90EF90DF90CF90BF90CC
:10094000AF909F908F907F906F905F904F903F906F
:100950002F9008950E94F9040E94A9010E944D0160
:10096000FDCF1F920F920FB60F9211242F933F933A
:100970008F939F93AF93BF938091590190915A01A8
:10098000A0915B01B0915C0130915D010196A11DC8
:10099000B11D232F2D5F2D3720F02D570196A11D5E
:1009A000B11D20935D018093590190935A01A0934A
:1009B0005B01B0935C018091550190915601A0912B
:1009C0005701B09158010196A11DB11D80935501A9
:1009D00090935601A0935701B0935801BF91AF91E6
:1009E0009F918F913F912F910F900FBE0F901F906D
:1009F0001895789484B5826084BD84B5816084BD87
:100A000085B5826085BD85B5816085BDEEE6F0E087
:100A1000808181608083E1E8F0E080818260808372
:100A2000808181608083E0E8F0E080818160808364
:100A3000E1EBF0E0808184608083E0EBF0E0808196
:100A400081608083EAE7F0E0808184608083808138
:100A500082608083808181608083808180688083E0
:100A60001092C1000895629FD001739FF001829F90
:100A7000E00DF11D649FE00DF11D929FF00D839F2D
:100A8000F00D749FF00D659FF00D9927729FB00DCA
:100A9000E11DF91F639FB00DE11DF91FBD01CF01DD
:100AA00011240895991B79E004C0991F961708F046
:100AB000961B881F7A95C9F78095089597FB092E94
:100AC00007260AD077FD04D027D006D000201AF4DC
:100AD000709561957F4F0895F6F7909581959F4F9A
:100AE000089597FB092E05260ED057FD04D028D077
:100AF0000AD0001C38F450954095309521953F4F11
:100B00004F4F5F4F0895F6F79095809570956195DA
:100B10007F4F8F4F9F4F0895AA1BBB1B51E107C00A
:100B2000AA1FBB1FA617B70710F0A61BB70B881F7D
:100B3000991F5A95A9F780959095BC01CD0108950C
:100B4000A1E21A2EAA1BBB1BFD010DC0AA1FBB1FD1
:100B5000EE1FFF1FA217B307E407F50720F0A21B43
:100B6000B30BE40BF50B661F771F881F991F1A94B0
:100B700069F760957095809590959B01AC01BD01DA
:100B8000CF010895EE0FFF1F0590F491E02D099419
:040B9000F894FFCF07
:020B940001005E
:00000001FF
