:100000000C9462000C948A000C948A000C948A0070
:100010000C948A000C948A000C948A000C948A0038
:100020000C948A000C948A000C948A000C9496011B
:100030000C948A000C948A000C948A000C948A0018
:100040000C9453020C948A000C948A000C948A003D
:100050000C948A000C948A000C948A000C948A00F8
:100060000C948A000C948A000000000024002700F1
:100070002A0000000000250028002B0000000000DE
:1000800023002600290004040404040404040202DA
:100090000202020203030303030301020408102007
:1000A0004080010204081020010204081020000012
:1000B0000007000201000003040600000000000029
:1000C00000002C0111241FBECFEFD8E0DEBFCDBF52
:1000D00011E0A0E0B1E0E0E5F8E002C005900D928B
:1000E000A030B107D9F711E0A0E0B1E001C01D9246
:1000F000AC36B107E1F710E0C4ECD0E004C02297C1
:10010000FE010E942204C23CD107C9F70E941904D3
:100110000C9426040C940000EF92FF920F93DF934F
:10012000CF93CDB7DEB760970FB6F894DEBF0FBEA2
:10013000CDBFA82F002309F461C07E010894E11C03
:10014000F11C88E0F70111928A95E9F729833A8337
:100150004B835C836D837E83AF83988780E2801BB3
:10016000E82FFF27E7FDF09549815A816B817C815B
:10017000181684F019861A861B861C8688279927EC
:100180008E1B9F0B04C0440F551F661F771F8A9557
:10019000D2F728C0202F332727FD3095DB01CA0175
:1001A000022E04C0880F991FAA1FBB1F0A94D2F702
:1001B00089879A87AB87BC8704C0769567955795E2
:1001C0004795EA95D2F78D819E81AF81B88504C0AD
:1001D000880F991FAA1FBB1F2A95D2F7482B592BAE
:1001E0006A2B7B2B4D875E876F87788B29853A85B5
:1001F0004B855C856D857E85AF8598898A2F609655
:100200000FB6F894DEBF0FBECDBFCF91DF910F9137
:10021000FF90EF900895CF92DF92EF92FF920F93AD
:100220001F938C016B017A0108960E947C01F801F2
:10023000C082D182F382E2828C2D61E00E94500361
:10024000F801828160E00E9450031F910F91FF909E
:10025000EF90DF90CF90089580E091E063E070E050
:100260004EE050E00E940B018DE091E065E070E00F
:100270004FE050E00E940B018AE191E066E070E0FF
:1002800040E150E00E940B0187E291E06BE070E0FA
:1002900041E150E00E940B011092350110923401AF
:1002A00010923701109236011092390110923801E4
:1002B00010923B0110923A010895809129010E9409
:1002C000CA03892BD1F36AE070E080E090E00E94DD
:1002D0009B02809129010E94CA030197D1F30895DE
:1002E00010923C0110922C0110922B018091270159
:1002F00060E00E9476030895FC0180913D018C30FE
:1003000090F480838F5F80933D01815090E0FC01E9
:10031000EE0FFF1FE80FF91FE25CFE4F88EB9BE03A
:100320009283818308958FEF808308951F920F92A7
:100330000FB60F9211242F933F934F935F936F93B8
:100340007F938F939F93AF93BF93EF93FF9380918E
:10035000620187FF05C010928500109284002BC0B7
:1003600020916201332727FD309580913D0190E077
:100370002817390704F580916201992787FD909528
:10038000FC01EE0FFF1FE80FF91FE25CFE4F8081BA
:1003900086FF11C080916201992787FD9095FC012D
:1003A000EE0FFF1FE80FF91FE25CFE4F80818F7395
:1003B00060E00E947603809162018F5F809362010A
:1003C00020916201332727FD309580913D0190E017
:1003D000281739070CF04EC0809162018C300CF068
:1003E00049C0209184003091850080916201992755
:1003F00087FD9095FC01EE0FFF1FE80FF91FE25CEF
:10040000FE4F81819281280F391F309389002093FC
:10041000880080916201992787FD9095FC01EE0F7D
:10042000FF1FE80FF91FE25CFE4F808186FF2AC0A4
:1004300080916201992787FD9095FC01EE0FFF1FC7
:10044000E80FF91FE25CFE4F80818F7361E00E942C
:10045000760318C080E49CE905C0809184009091E7
:100460008500049690938900809388008FEF809395
:10047000620108C0809184009091850084549C4959
:1004800048F3EBCFFF91EF91BF91AF919F918F9187
:100490007F916F915F914F913F912F910F900FBE80
:1004A0000F901F9018951F920F920FB60F92112464
:1004B0002F933F938F939F93AF93BF938091670147
:1004C00090916801A0916901B0916A0130916B012E
:1004D0000196A11DB11D232F2D5F2D3720F02D5723
:1004E0000196A11DB11D20936B018093670190932C
:1004F0006801A0936901B0936A01809163019091B2
:100500006401A0916501B09166010196A11DB11D24
:100510008093630190936401A0936501B093660199
:10052000BF91AF919F918F913F912F910F900FBEEF
:100530000F901F9018956F927F928F929F92AF921B
:10054000BF92CF92DF92EF92FF920F931F93CF93C0
:10055000DF933B014C013FB7F89480916301909188
:100560006401A0916501B091660126B5A89B05C004
:100570002F3F19F00196A11DB11D3FBFAA24B82E2F
:10058000C92EDA2EA20EB11CC11CD11C9501A601E8
:1005900060E070E080E090E002E00E948C00E90101
:1005A00031C03FB7F8948091630190916401A091AC
:1005B0006501B091660126B5A89B05C02F3F19F0D3
:1005C0000196A11DB11D3FBFAA24B82EC92EDA2E57
:1005D000A20EB11CC11CD11C9501A60160E070E007
:1005E00080E090E002E00E948C00C9018C1B9D0B12
:1005F000885E9340B0F20894610871088108910800
:10060000C851DC4F611471048104910451F6DF91EB
:10061000CF911F910F91FF90EF90DF90CF90BF90FF
:10062000AF909F908F907F906F900895789484B54D
:10063000826084BD84B5816084BD85B5826085BDDE
:1006400085B5816085BDEEE6F0E0808181608083C4
:10065000E1E8F0E080818260808380818160808336
:10066000E0E8F0E0808181608083E1EBF0E0808170
:1006700084608083E0EBF0E0808181608083EAE742
:10068000F0E08081846080838081826080838081CB
:10069000816080838081806880831092C10008958A
:1006A000482F50E0CA0186569F4FFC0124914A57BB
:1006B0005F4FFA0184918823C1F0E82FF0E0EE0F3C
:1006C000FF1FE859FF4FA591B491662341F49FB7EE
:1006D000F8948C91209582238C939FBF08959FB7A7
:1006E000F8948C91822B8C939FBF0895482F50E0F3
:1006F000CA0182559F4FFC012491CA0186569F4F23
:10070000FC0134914A575F4FFA019491992309F4FF
:1007100040C0222331F1233021F4809180008F7773
:1007200005C0243031F4809180008F7D809380005B
:1007300018C0213019F484B58F7704C0223021F419
:1007400084B58F7D84BD0DC0263021F48091B0002A
:100750008F7705C0273029F48091B0008F7D80937A
:10076000B000E92FF0E0EE0FFF1FEE58FF4FA5910C
:10077000B491662341F49FB7F8948C91309583230C
:100780008C939FBF08959FB7F8948C91832B8C9383
:100790009FBF0895682F70E0CB0182559F4FFC01E9
:1007A0002491CB0186569F4FFC0144916A577F4F9D
:1007B000FB019491992319F420E030E038C0222302
:1007C00031F1233021F4809180008F7705C02430EF
:1007D00031F4809180008F7D8093800018C021309B
:1007E00019F484B58F7704C0223021F484B58F7D4D
:1007F00084BD0DC0263021F48091B0008F7705C0F4
:10080000273029F48091B0008F7D8093B000892F2C
:1008100090E0880F991F84589F4FFC01A591B491D7
:100820008C9120E030E0842311F021E030E0C90118
:1008300008950E9416030E9470010E945D01FDCF81
:10084000EE0FFF1F0590F491E02D0994F894FFCF6F
:00000001FF
