:100000000C9461000C947E000C947E000C947E0095
:100010000C947E000C947E000C947E000C947E0068
:100020000C947E000C947E000C947E000C947E0058
:100030000C947E000C947E000C947E000C947E0048
:100040000C9422010C947E000C947E000C947E0093
:100050000C947E000C947E000C947E000C947E0028
:100060000C947E000C947E00000000002400270009
:100070002A0000000000250028002B0000000000DE
:1000800023002600290004040404040404040202DA
:100090000202020203030303030301020408102007
:1000A0004080010204081020010204081020000012
:1000B0000007000201000003040600000000000029
:1000C000000011241FBECFEFD8E0DEBFCDBF11E08E
:1000D000A0E0B1E0E4E4F5E002C005900D92A030AC
:1000E000B107D9F711E0A0E0B1E001C01D92AA303C
:1000F000B107E1F70E9499020C94A0020C94000051
:10010000EF92FF920F93DF93CF93CDB7DEB7609757
:100110000FB6F894DEBF0FBECDBFA82F002309F4A1
:1001200061C07E010894E11CF11C88E0F701119286
:100130008A95E9F729833A834B835C836D837E83B9
:10014000AF83988780E2801BE82FFF27E7FDF095BB
:1001500049815A816B817C81181684F019861A8630
:100160001B861C86882799278E1B9F0B04C0440F73
:10017000551F661F771F8A95D2F728C0202F332777
:1001800027FD3095DB01CA01022E04C0880F991F9C
:10019000AA1FBB1F0A94D2F789879A87AB87BC87AF
:1001A00004C07695679557954795EA95D2F78D8166
:1001B0009E81AF81B88504C0880F991FAA1FBB1FFD
:1001C0002A95D2F7482B592B6A2B7B2B4D875E87BC
:1001D0006F87788B29853A854B855C856D857E8513
:1001E000AF8598898A2F60960FB6F894DEBF0FBE50
:1001F000CDBFCF91DF910F91FF90EF900895809147
:1002000000018823B9F48DE061E00E94450268EEA8
:1002100073E080E090E00E946A018DE060E00E945F
:10022000450268EE73E080E090E00E946A0181E0A0
:10023000809300010895109200018DE061E00E941A
:100240001F0208951F920F920FB60F9211242F9341
:100250003F938F939F93AF93BF93809105019091AC
:100260000601A0910701B0910801309109010196A2
:10027000A11DB11D232F2D5F2D3720F02D57019685
:10028000A11DB11D209309018093050190930601E2
:10029000A0930701B09308018091010190910201A0
:1002A000A0910301B09104010196A11DB11D80939D
:1002B000010190930201A0930301B0930401BF9147
:1002C000AF919F918F913F912F910F900FBE0F9003
:1002D0001F9018956F927F928F929F92AF92BF92CC
:1002E000CF92DF92EF92FF920F931F93CF93DF9302
:1002F0003B014C013FB7F8948091010190910201BC
:10030000A0910301B091040126B5A89B05C02F3F21
:1003100019F00196A11DB11D3FBFAA24B82EC92E08
:10032000DA2EA20EB11CC11CD11C9501A60160E001
:1003300070E080E090E002E00E948000E90131C0BE
:100340003FB7F8948091010190910201A0910301BF
:10035000B091040126B5A89B05C02F3F19F0019666
:10036000A11DB11D3FBFAA24B82EC92EDA2EA20EA0
:10037000B11CC11CD11C9501A60160E070E080E0B9
:1003800090E002E00E948000C9018C1B9D0B885EFA
:100390009340B0F208946108710881089108C8512F
:1003A000DC4F611471048104910451F6DF91CF9107
:1003B0001F910F91FF90EF90DF90CF90BF90AF9083
:1003C0009F908F907F906F900895789484B582600D
:1003D00084BD84B5816084BD85B5826085BD85B5E9
:1003E000816085BDEEE6F0E0808181608083E1E898
:1003F000F0E0808182608083808181608083E0E89A
:10040000F0E0808181608083E1EBF0E080818460B6
:100410008083E0EBF0E0808181608083EAE7F0E0B8
:10042000808184608083808182608083808181601C
:1004300080838081806880831092C1000895482F56
:1004400050E0CA0186569F4FFC0124914A575F4FE6
:10045000FA0184918823C1F0E82FF0E0EE0FFF1F2E
:10046000E859FF4FA591B491662341F49FB7F894E2
:100470008C91209582238C939FBF08959FB7F89409
:100480008C91822B8C939FBF0895482F50E0CA0116
:1004900082559F4FFC012491CA0186569F4FFC0153
:1004A00034914A575F4FFA019491992309F440C05F
:1004B000222331F1233021F4809180008F7705C011
:1004C000243031F4809180008F7D8093800018C0AB
:1004D000213019F484B58F7704C0223021F484B51B
:1004E0008F7D84BD0DC0263021F48091B0008F77C0
:1004F00005C0273029F48091B0008F7D8093B00033
:10050000E92FF0E0EE0FFF1FEE58FF4FA591B491D9
:10051000662341F49FB7F8948C91309583238C9394
:100520009FBF08959FB7F8948C91832B8C939FBFA6
:1005300008950E94E5010E941B010E94FF00FDCF6B
:04054000F894FFCF5D
:00000001FF
